{
  "contractName": "DarkPhantom",
  "abi": [
    {
      "inputs": [],
      "stateMutability": "nonpayable",
      "type": "constructor"
    },
    {
      "anonymous": false,
      "inputs": [
        {
          "indexed": true,
          "internalType": "address",
          "name": "_from",
          "type": "address"
        },
        {
          "indexed": true,
          "internalType": "address",
          "name": "_to",
          "type": "address"
        },
        {
          "indexed": true,
          "internalType": "uint256",
          "name": "tokenId",
          "type": "uint256"
        }
      ],
      "name": "Transfer",
      "type": "event"
    },
    {
      "inputs": [
        {
          "internalType": "address",
          "name": "_owner",
          "type": "address"
        }
      ],
      "name": "balanceOf",
      "outputs": [
        {
          "internalType": "uint256",
          "name": "",
          "type": "uint256"
        }
      ],
      "stateMutability": "view",
      "type": "function",
      "constant": true
    },
    {
      "inputs": [
        {
          "internalType": "uint256",
          "name": "",
          "type": "uint256"
        }
      ],
      "name": "darkPhantomz",
      "outputs": [
        {
          "internalType": "string",
          "name": "",
          "type": "string"
        }
      ],
      "stateMutability": "view",
      "type": "function",
      "constant": true
    },
    {
      "inputs": [],
      "name": "name",
      "outputs": [
        {
          "internalType": "string",
          "name": "",
          "type": "string"
        }
      ],
      "stateMutability": "view",
      "type": "function",
      "constant": true
    },
    {
      "inputs": [
        {
          "internalType": "uint256",
          "name": "_tokenId",
          "type": "uint256"
        }
      ],
      "name": "ownerOf",
      "outputs": [
        {
          "internalType": "address",
          "name": "",
          "type": "address"
        }
      ],
      "stateMutability": "view",
      "type": "function",
      "constant": true
    },
    {
      "inputs": [],
      "name": "symbol",
      "outputs": [
        {
          "internalType": "string",
          "name": "",
          "type": "string"
        }
      ],
      "stateMutability": "view",
      "type": "function",
      "constant": true
    },
    {
      "inputs": [
        {
          "internalType": "uint256",
          "name": "_index",
          "type": "uint256"
        }
      ],
      "name": "tokenByIndex",
      "outputs": [
        {
          "internalType": "uint256",
          "name": "",
          "type": "uint256"
        }
      ],
      "stateMutability": "view",
      "type": "function",
      "constant": true
    },
    {
      "inputs": [
        {
          "internalType": "address",
          "name": "_owner",
          "type": "address"
        },
        {
          "internalType": "uint256",
          "name": "_index",
          "type": "uint256"
        }
      ],
      "name": "tokenOfOwnerByIndex",
      "outputs": [
        {
          "internalType": "uint256",
          "name": "",
          "type": "uint256"
        }
      ],
      "stateMutability": "view",
      "type": "function",
      "constant": true
    },
    {
      "inputs": [],
      "name": "totalSupply",
      "outputs": [
        {
          "internalType": "uint256",
          "name": "",
          "type": "uint256"
        }
      ],
      "stateMutability": "view",
      "type": "function",
      "constant": true
    },
    {
      "inputs": [
        {
          "internalType": "string",
          "name": "_darkPhantom",
          "type": "string"
        }
      ],
      "name": "mint",
      "outputs": [],
      "stateMutability": "nonpayable",
      "type": "function"
    }
  ],
  "bytecode": "0x60806040523480156200001157600080fd5b506040518060400160405280600b81526020017f4461726b5068616e746f6d0000000000000000000000000000000000000000008152506040518060400160405280600981526020017f445068616e746f6d7a00000000000000000000000000000000000000000000008152508181816000908162000091919062000328565b508060019081620000a3919062000328565b50505050506200040f565b600081519050919050565b7f4e487b7100000000000000000000000000000000000000000000000000000000600052604160045260246000fd5b7f4e487b7100000000000000000000000000000000000000000000000000000000600052602260045260246000fd5b600060028204905060018216806200013057607f821691505b602082108103620001465762000145620000e8565b5b50919050565b60008190508160005260206000209050919050565b60006020601f8301049050919050565b600082821b905092915050565b600060088302620001b07fffffffffffffffffffffffffffffffffffffffffffffffffffffffffffffffff8262000171565b620001bc868362000171565b95508019841693508086168417925050509392505050565b6000819050919050565b6000819050919050565b60006200020962000203620001fd84620001d4565b620001de565b620001d4565b9050919050565b6000819050919050565b6200022583620001e8565b6200023d620002348262000210565b8484546200017e565b825550505050565b600090565b6200025462000245565b620002618184846200021a565b505050565b5b8181101562000289576200027d6000826200024a565b60018101905062000267565b5050565b601f821115620002d857620002a2816200014c565b620002ad8462000161565b81016020851015620002bd578190505b620002d5620002cc8562000161565b83018262000266565b50505b505050565b600082821c905092915050565b6000620002fd60001984600802620002dd565b1980831691505092915050565b6000620003188383620002ea565b9150826002028217905092915050565b6200033382620000ae565b67ffffffffffffffff8111156200034f576200034e620000b9565b5b6200035b825462000117565b620003688282856200028d565b600060209050601f831160018114620003a057600084156200038b578287015190505b6200039785826200030a565b86555062000407565b601f198416620003b0866200014c565b60005b82811015620003da57848901518255600182019150602085019450602081019050620003b3565b86831015620003fa5784890151620003f6601f891682620002ea565b8355505b6001600288020188555050505b505050505050565b6116b6806200041f6000396000f3fe608060405234801561001057600080fd5b50600436106100935760003560e01c80634f6ccce7116100665780634f6ccce7146101345780636352211e1461016457806370a082311461019457806395d89b41146101c4578063d85d3d27146101e257610093565b806306fdde031461009857806318160ddd146100b65780632b859604146100d45780632f745c5914610104575b600080fd5b6100a06101fe565b6040516100ad9190610bcb565b60405180910390f35b6100be610290565b6040516100cb9190610c06565b60405180910390f35b6100ee60048036038101906100e99190610c61565b61029d565b6040516100fb9190610bcb565b60405180910390f35b61011e60048036038101906101199190610cec565b610349565b60405161012b9190610c06565b60405180910390f35b61014e60048036038101906101499190610c61565b610469565b60405161015b9190610c06565b60405180910390f35b61017e60048036038101906101799190610c61565b6104db565b60405161018b9190610d3b565b60405180910390f35b6101ae60048036038101906101a99190610d56565b61058c565b6040516101bb9190610c06565b60405180910390f35b6101cc610643565b6040516101d99190610bcb565b60405180910390f35b6101fc60048036038101906101f79190610eb8565b6106d5565b005b60606000805461020d90610f30565b80601f016020809104026020016040519081016040528092919081815260200182805461023990610f30565b80156102865780601f1061025b57610100808354040283529160200191610286565b820191906000526020600020905b81548152906001019060200180831161026957829003601f168201915b5050505050905090565b6000600480549050905090565b600881815481106102ad57600080fd5b9060005260206000200160009150905080546102c890610f30565b80601f01602080910402602001604051908101604052809291908181526020018280546102f490610f30565b80156103415780601f1061031657610100808354040283529160200191610341565b820191906000526020600020905b81548152906001019060200180831161032457829003601f168201915b505050505081565b60006103548361058c565b821115610396576040517f08c379a000000000000000000000000000000000000000000000000000000000815260040161038d90610fad565b60405180910390fd5b600073ffffffffffffffffffffffffffffffffffffffff168373ffffffffffffffffffffffffffffffffffffffff1603610405576040517f08c379a00000000000000000000000000000000000000000000000000000000081526004016103fc90611019565b60405180910390fd5b600660008473ffffffffffffffffffffffffffffffffffffffff1673ffffffffffffffffffffffffffffffffffffffff168152602001908152602001600020828154811061045657610455611039565b5b9060005260206000200154905092915050565b6000610473610290565b8211156104b5576040517f08c379a00000000000000000000000000000000000000000000000000000000081526004016104ac906110b4565b60405180910390fd5b600482815481106104c9576104c8611039565b5b90600052602060002001549050919050565b6000806002600084815260200190815260200160002060009054906101000a900473ffffffffffffffffffffffffffffffffffffffff169050600073ffffffffffffffffffffffffffffffffffffffff168173ffffffffffffffffffffffffffffffffffffffff1603610583576040517f08c379a000000000000000000000000000000000000000000000000000000000815260040161057a90611146565b60405180910390fd5b80915050919050565b60008073ffffffffffffffffffffffffffffffffffffffff168273ffffffffffffffffffffffffffffffffffffffff16036105fc576040517f08c379a00000000000000000000000000000000000000000000000000000000081526004016105f390611146565b60405180910390fd5b600360008373ffffffffffffffffffffffffffffffffffffffff1673ffffffffffffffffffffffffffffffffffffffff168152602001908152602001600020549050919050565b60606001805461065290610f30565b80601f016020809104026020016040519081016040528092919081815260200182805461067e90610f30565b80156106cb5780601f106106a0576101008083540402835291602001916106cb565b820191906000526020600020905b8154815290600101906020018083116106ae57829003601f168201915b5050505050905090565b6009816040516106e591906111a2565b908152602001604051809103902060009054906101000a900460ff1615610741576040517f08c379a00000000000000000000000000000000000000000000000000000000081526004016107389061122b565b60405180910390fd5b60088190806001815401808255809150506001900390600052602060002001600090919091909150908161077591906113f7565b506000600160088054905061078a91906114f8565b905061079633826107d1565b60016009836040516107a891906111a2565b908152602001604051809103902060006101000a81548160ff0219169083151502179055505050565b6107db82826107f2565b6107e4816109b3565b6107ee82826109fc565b5050565b600073ffffffffffffffffffffffffffffffffffffffff168273ffffffffffffffffffffffffffffffffffffffff1603610861576040517f08c379a00000000000000000000000000000000000000000000000000000000081526004016108589061159e565b60405180910390fd5b61086a81610ac0565b156108aa576040517f08c379a00000000000000000000000000000000000000000000000000000000081526004016108a19061160a565b60405180910390fd5b816002600083815260200190815260200160002060006101000a81548173ffffffffffffffffffffffffffffffffffffffff021916908373ffffffffffffffffffffffffffffffffffffffff1602179055506001600360008473ffffffffffffffffffffffffffffffffffffffff1673ffffffffffffffffffffffffffffffffffffffff168152602001908152602001600020600082825461094c919061162a565b92505081905550808273ffffffffffffffffffffffffffffffffffffffff16600073ffffffffffffffffffffffffffffffffffffffff167fddf252ad1be2c89b69c2b068fc378daa952ba7f163c4a11628f55a4df523b3ef60405160405180910390a45050565b6004805490506005600083815260200190815260200160002081905550600481908060018154018082558091505060019003906000526020600020016000909190919091505550565b600660008373ffffffffffffffffffffffffffffffffffffffff1673ffffffffffffffffffffffffffffffffffffffff168152602001908152602001600020819080600181540180825580915050600190039060005260206000200160009091909190915055600660008373ffffffffffffffffffffffffffffffffffffffff1673ffffffffffffffffffffffffffffffffffffffff1681526020019081526020016000208054905060076000838152602001908152602001600020819055505050565b6000806002600084815260200190815260200160002060009054906101000a900473ffffffffffffffffffffffffffffffffffffffff169050600073ffffffffffffffffffffffffffffffffffffffff168173ffffffffffffffffffffffffffffffffffffffff161415915050919050565b600081519050919050565b600082825260208201905092915050565b60005b83811015610b6c578082015181840152602081019050610b51565b83811115610b7b576000848401525b50505050565b6000601f19601f8301169050919050565b6000610b9d82610b32565b610ba78185610b3d565b9350610bb7818560208601610b4e565b610bc081610b81565b840191505092915050565b60006020820190508181036000830152610be58184610b92565b905092915050565b6000819050919050565b610c0081610bed565b82525050565b6000602082019050610c1b6000830184610bf7565b92915050565b6000604051905090565b600080fd5b600080fd5b610c3e81610bed565b8114610c4957600080fd5b50565b600081359050610c5b81610c35565b92915050565b600060208284031215610c7757610c76610c2b565b5b6000610c8584828501610c4c565b91505092915050565b600073ffffffffffffffffffffffffffffffffffffffff82169050919050565b6000610cb982610c8e565b9050919050565b610cc981610cae565b8114610cd457600080fd5b50565b600081359050610ce681610cc0565b92915050565b60008060408385031215610d0357610d02610c2b565b5b6000610d1185828601610cd7565b9250506020610d2285828601610c4c565b9150509250929050565b610d3581610cae565b82525050565b6000602082019050610d506000830184610d2c565b92915050565b600060208284031215610d6c57610d6b610c2b565b5b6000610d7a84828501610cd7565b91505092915050565b600080fd5b600080fd5b7f4e487b7100000000000000000000000000000000000000000000000000000000600052604160045260246000fd5b610dc582610b81565b810181811067ffffffffffffffff82111715610de457610de3610d8d565b5b80604052505050565b6000610df7610c21565b9050610e038282610dbc565b919050565b600067ffffffffffffffff821115610e2357610e22610d8d565b5b610e2c82610b81565b9050602081019050919050565b82818337600083830152505050565b6000610e5b610e5684610e08565b610ded565b905082815260208101848484011115610e7757610e76610d88565b5b610e82848285610e39565b509392505050565b600082601f830112610e9f57610e9e610d83565b5b8135610eaf848260208601610e48565b91505092915050565b600060208284031215610ece57610ecd610c2b565b5b600082013567ffffffffffffffff811115610eec57610eeb610c30565b5b610ef884828501610e8a565b91505092915050565b7f4e487b7100000000000000000000000000000000000000000000000000000000600052602260045260246000fd5b60006002820490506001821680610f4857607f821691505b602082108103610f5b57610f5a610f01565b5b50919050565b7f4f776e657220696e646578206973206f7574206f6620626f756e647321000000600082015250565b6000610f97601d83610b3d565b9150610fa282610f61565b602082019050919050565b60006020820190508181036000830152610fc681610f8a565b9050919050565b7f4f776e657220697320696e76616c696421000000000000000000000000000000600082015250565b6000611003601183610b3d565b915061100e82610fcd565b602082019050919050565b6000602082019050818103600083015261103281610ff6565b9050919050565b7f4e487b7100000000000000000000000000000000000000000000000000000000600052603260045260246000fd5b7f476c6f62616c20696e646578206973206f7574206f6620626f756e6473210000600082015250565b600061109e601e83610b3d565b91506110a982611068565b602082019050919050565b600060208201905081810360008301526110cd81611091565b9050919050565b7f4f776e657220717565727920666f72206e6f6e2d6578697374616e7420746f6b60008201527f656e000000000000000000000000000000000000000000000000000000000000602082015250565b6000611130602283610b3d565b915061113b826110d4565b604082019050919050565b6000602082019050818103600083015261115f81611123565b9050919050565b600081905092915050565b600061117c82610b32565b6111868185611166565b9350611196818560208601610b4e565b80840191505092915050565b60006111ae8284611171565b915081905092915050565b7f4572726f723a204461726b5068616e746f6d20616c726561647920657869737460008201527f7300000000000000000000000000000000000000000000000000000000000000602082015250565b6000611215602183610b3d565b9150611220826111b9565b604082019050919050565b6000602082019050818103600083015261124481611208565b9050919050565b60008190508160005260206000209050919050565b60006020601f8301049050919050565b600082821b905092915050565b6000600883026112ad7fffffffffffffffffffffffffffffffffffffffffffffffffffffffffffffffff82611270565b6112b78683611270565b95508019841693508086168417925050509392505050565b6000819050919050565b60006112f46112ef6112ea84610bed565b6112cf565b610bed565b9050919050565b6000819050919050565b61130e836112d9565b61132261131a826112fb565b84845461127d565b825550505050565b600090565b61133761132a565b611342818484611305565b505050565b5b818110156113665761135b60008261132f565b600181019050611348565b5050565b601f8211156113ab5761137c8161124b565b61138584611260565b81016020851015611394578190505b6113a86113a085611260565b830182611347565b50505b505050565b600082821c905092915050565b60006113ce600019846008026113b0565b1980831691505092915050565b60006113e783836113bd565b9150826002028217905092915050565b61140082610b32565b67ffffffffffffffff81111561141957611418610d8d565b5b6114238254610f30565b61142e82828561136a565b600060209050601f831160018114611461576000841561144f578287015190505b61145985826113db565b8655506114c1565b601f19841661146f8661124b565b60005b8281101561149757848901518255600182019150602085019450602081019050611472565b868310156114b457848901516114b0601f8916826113bd565b8355505b6001600288020188555050505b505050505050565b7f4e487b7100000000000000000000000000000000000000000000000000000000600052601160045260246000fd5b600061150382610bed565b915061150e83610bed565b925082821015611521576115206114c9565b5b828203905092915050565b7f4552433732313a204d696e74696e6720746f20746865207a65726f206164647260008201527f6573730000000000000000000000000000000000000000000000000000000000602082015250565b6000611588602383610b3d565b91506115938261152c565b604082019050919050565b600060208201905081810360008301526115b78161157b565b9050919050565b7f4552433732313a20546f6b656e20616c7265616479206d696e74656400000000600082015250565b60006115f4601c83610b3d565b91506115ff826115be565b602082019050919050565b60006020820190508181036000830152611623816115e7565b9050919050565b600061163582610bed565b915061164083610bed565b9250827fffffffffffffffffffffffffffffffffffffffffffffffffffffffffffffffff03821115611675576116746114c9565b5b82820190509291505056fea26469706673582212200ce82bc5a8c2798a6f036894978021234aac5436f832ebf6f25671ee2f537b5864736f6c634300080f0033",
  "immutableReferences": {},
  "source": "// SPDX-License-Identifier: MIT\r\n\r\npragma solidity ^0.8.0;\r\n\r\nimport './ERC721/ERC721Connector.sol';\r\n\r\n\r\ncontract DarkPhantom is ERC721Connector {\r\n\r\n    // Array to store our NFTs\r\n    string[] public darkPhantomz;\r\n    mapping(string => bool) darkPhantomExists;\r\n\r\n    // First Exercise - Initialize this contract to inherit\r\n    // Name and symbol from ERC721Metadat so that\r\n    // The name is DarkPhantom and the symbol is DPhantomz\r\n\r\n    constructor() ERC721Connector(\"DarkPhantom\", \"DPhantomz\") {}\r\n\r\n    function mint(string memory _darkPhantom) public {\r\n        \r\n        require(!darkPhantomExists[_darkPhantom], \"Error: DarkPhantom already exists\");\r\n\r\n        // This is deprecated - uint id = darkPhantomz.push(_darkPhantom);\r\n        // .push no longer returns the length but a reference to the added element\r\n        darkPhantomz.push(_darkPhantom);\r\n        uint id = darkPhantomz.length - 1;\r\n\r\n        _mint(msg.sender, id);\r\n        darkPhantomExists[_darkPhantom] = true;\r\n\r\n    }\r\n\r\n}",
  "sourcePath": "D:\\blockchain-learning\\nft-marketplace-react\\src\\contracts\\DarkPhantom.sol",
  "compiler": {
    "name": "solc",
    "version": "0.8.15+commit.e14f2714.Emscripten.clang"
  },
  "schemaVersion": "3.4.7",
  "updatedAt": "2022-06-27T08:12:42.371Z",
  "networkType": "ethereum",
  "devdoc": {
    "kind": "dev",
    "methods": {
      "balanceOf(address)": {
        "details": "NFTs assigned to the zero address are considered invalid, and this function throws for queries about the zero address.",
        "params": {
          "_owner": "An address for whom to query the balance"
        },
        "returns": {
          "_0": "The number of NFTs owned by `_owner`, possibly zero"
        }
      },
      "ownerOf(uint256)": {
        "details": "NFTs assigned to zero address are considered invalid, and queries about them do throw.",
        "params": {
          "_tokenId": "The identifier for an NFT"
        },
        "returns": {
          "_0": "The address of the owner of the NFT"
        }
      },
      "tokenByIndex(uint256)": {
        "details": "Throws if _index >= totalSupply()",
        "params": {
          "_index": "The index of the token"
        },
        "returns": {
          "_0": "uint The token identifier for the NFT"
        }
      },
      "tokenOfOwnerByIndex(address,uint256)": {
        "details": "Throws if _index >= balanceOf(_owner) or if _owner is the zero address,  representing invalid NFTs.",
        "params": {
          "_index": "The index of the token",
          "_owner": "An address where we are interested in NFTs owned by them"
        },
        "returns": {
          "_0": "uint The token identifier for the indexed NFT assigned to owner"
        }
      },
      "totalSupply()": {
        "returns": {
          "_0": "uint A count of valid NFTs tracked by  this contract, where each one of them has an  assigned and queryable owner not equal to the  zero address"
        }
      }
    },
    "version": 1
  },
  "userdoc": {
    "kind": "user",
    "methods": {
      "balanceOf(address)": {
        "notice": "Count all NFTs assigned to an owner"
      },
      "ownerOf(uint256)": {
        "notice": "Find the owner of an NFT"
      },
      "tokenByIndex(uint256)": {
        "notice": "Enumerate valid NFTs"
      },
      "tokenOfOwnerByIndex(address,uint256)": {
        "notice": "Enumerate NFTs assigned to an owner"
      },
      "totalSupply()": {
        "notice": "Count NFTs tracked by this contract"
      }
    },
    "version": 1
  }
}