{
  "contractName": "DarkPhantom",
  "abi": [
    {
      "inputs": [],
      "stateMutability": "nonpayable",
      "type": "constructor"
    },
    {
      "anonymous": false,
      "inputs": [
        {
          "indexed": true,
          "internalType": "address",
          "name": "_from",
          "type": "address"
        },
        {
          "indexed": true,
          "internalType": "address",
          "name": "_to",
          "type": "address"
        },
        {
          "indexed": true,
          "internalType": "uint256",
          "name": "tokenId",
          "type": "uint256"
        }
      ],
      "name": "Transfer",
      "type": "event"
    },
    {
      "inputs": [
        {
          "internalType": "address",
          "name": "_owner",
          "type": "address"
        }
      ],
      "name": "balanceOf",
      "outputs": [
        {
          "internalType": "uint256",
          "name": "",
          "type": "uint256"
        }
      ],
      "stateMutability": "view",
      "type": "function",
      "constant": true
    },
    {
      "inputs": [
        {
          "internalType": "uint256",
          "name": "",
          "type": "uint256"
        }
      ],
      "name": "darkPhantomz",
      "outputs": [
        {
          "internalType": "string",
          "name": "",
          "type": "string"
        }
      ],
      "stateMutability": "view",
      "type": "function",
      "constant": true
    },
    {
      "inputs": [],
      "name": "name",
      "outputs": [
        {
          "internalType": "string",
          "name": "",
          "type": "string"
        }
      ],
      "stateMutability": "view",
      "type": "function",
      "constant": true
    },
    {
      "inputs": [
        {
          "internalType": "uint256",
          "name": "_tokenId",
          "type": "uint256"
        }
      ],
      "name": "ownerOf",
      "outputs": [
        {
          "internalType": "address",
          "name": "",
          "type": "address"
        }
      ],
      "stateMutability": "view",
      "type": "function",
      "constant": true
    },
    {
      "inputs": [],
      "name": "symbol",
      "outputs": [
        {
          "internalType": "string",
          "name": "",
          "type": "string"
        }
      ],
      "stateMutability": "view",
      "type": "function",
      "constant": true
    },
    {
      "inputs": [
        {
          "internalType": "string",
          "name": "_darkPhantom",
          "type": "string"
        }
      ],
      "name": "mint",
      "outputs": [],
      "stateMutability": "nonpayable",
      "type": "function"
    }
  ],
  "bytecode": "0x60806040523480156200001157600080fd5b506040518060400160405280600b81526020017f4461726b5068616e746f6d0000000000000000000000000000000000000000008152506040518060400160405280600981526020017f445068616e746f6d7a00000000000000000000000000000000000000000000008152508181816000908162000091919062000328565b508060019081620000a3919062000328565b50505050506200040f565b600081519050919050565b7f4e487b7100000000000000000000000000000000000000000000000000000000600052604160045260246000fd5b7f4e487b7100000000000000000000000000000000000000000000000000000000600052602260045260246000fd5b600060028204905060018216806200013057607f821691505b602082108103620001465762000145620000e8565b5b50919050565b60008190508160005260206000209050919050565b60006020601f8301049050919050565b600082821b905092915050565b600060088302620001b07fffffffffffffffffffffffffffffffffffffffffffffffffffffffffffffffff8262000171565b620001bc868362000171565b95508019841693508086168417925050509392505050565b6000819050919050565b6000819050919050565b60006200020962000203620001fd84620001d4565b620001de565b620001d4565b9050919050565b6000819050919050565b6200022583620001e8565b6200023d620002348262000210565b8484546200017e565b825550505050565b600090565b6200025462000245565b620002618184846200021a565b505050565b5b8181101562000289576200027d6000826200024a565b60018101905062000267565b5050565b601f821115620002d857620002a2816200014c565b620002ad8462000161565b81016020851015620002bd578190505b620002d5620002cc8562000161565b83018262000266565b50505b505050565b600082821c905092915050565b6000620002fd60001984600802620002dd565b1980831691505092915050565b6000620003188383620002ea565b9150826002028217905092915050565b6200033382620000ae565b67ffffffffffffffff8111156200034f576200034e620000b9565b5b6200035b825462000117565b620003688282856200028d565b600060209050601f831160018114620003a057600084156200038b578287015190505b6200039785826200030a565b86555062000407565b601f198416620003b0866200014c565b60005b82811015620003da57848901518255600182019150602085019450602081019050620003b3565b86831015620003fa5784890151620003f6601f891682620002ea565b8355505b6001600288020188555050505b505050505050565b611187806200041f6000396000f3fe608060405234801561001057600080fd5b50600436106100625760003560e01c806306fdde03146100675780632b859604146100855780636352211e146100b557806370a08231146100e557806395d89b4114610115578063d85d3d2714610133575b600080fd5b61006f61014f565b60405161007c919061084f565b60405180910390f35b61009f600480360381019061009a91906108bb565b6101e1565b6040516100ac919061084f565b60405180910390f35b6100cf60048036038101906100ca91906108bb565b61028d565b6040516100dc9190610929565b60405180910390f35b6100ff60048036038101906100fa9190610970565b61033e565b60405161010c91906109ac565b60405180910390f35b61011d6103f5565b60405161012a919061084f565b60405180910390f35b61014d60048036038101906101489190610afc565b610487565b005b60606000805461015e90610b74565b80601f016020809104026020016040519081016040528092919081815260200182805461018a90610b74565b80156101d75780601f106101ac576101008083540402835291602001916101d7565b820191906000526020600020905b8154815290600101906020018083116101ba57829003601f168201915b5050505050905090565b600481815481106101f157600080fd5b90600052602060002001600091509050805461020c90610b74565b80601f016020809104026020016040519081016040528092919081815260200182805461023890610b74565b80156102855780601f1061025a57610100808354040283529160200191610285565b820191906000526020600020905b81548152906001019060200180831161026857829003601f168201915b505050505081565b6000806002600084815260200190815260200160002060009054906101000a900473ffffffffffffffffffffffffffffffffffffffff169050600073ffffffffffffffffffffffffffffffffffffffff168173ffffffffffffffffffffffffffffffffffffffff1603610335576040517f08c379a000000000000000000000000000000000000000000000000000000000815260040161032c90610c17565b60405180910390fd5b80915050919050565b60008073ffffffffffffffffffffffffffffffffffffffff168273ffffffffffffffffffffffffffffffffffffffff16036103ae576040517f08c379a00000000000000000000000000000000000000000000000000000000081526004016103a590610c17565b60405180910390fd5b600360008373ffffffffffffffffffffffffffffffffffffffff1673ffffffffffffffffffffffffffffffffffffffff168152602001908152602001600020549050919050565b60606001805461040490610b74565b80601f016020809104026020016040519081016040528092919081815260200182805461043090610b74565b801561047d5780601f106104525761010080835404028352916020019161047d565b820191906000526020600020905b81548152906001019060200180831161046057829003601f168201915b5050505050905090565b6005816040516104979190610c73565b908152602001604051809103902060009054906101000a900460ff16156104f3576040517f08c379a00000000000000000000000000000000000000000000000000000000081526004016104ea90610cfc565b60405180910390fd5b6004819080600181540180825580915050600190039060005260206000200160009091909190915090816105279190610ec8565b506000600160048054905061053c9190610fc9565b90506105483382610583565b600160058360405161055a9190610c73565b908152602001604051809103902060006101000a81548160ff0219169083151502179055505050565b600073ffffffffffffffffffffffffffffffffffffffff168273ffffffffffffffffffffffffffffffffffffffff16036105f2576040517f08c379a00000000000000000000000000000000000000000000000000000000081526004016105e99061106f565b60405180910390fd5b6105fb81610744565b1561063b576040517f08c379a0000000000000000000000000000000000000000000000000000000008152600401610632906110db565b60405180910390fd5b816002600083815260200190815260200160002060006101000a81548173ffffffffffffffffffffffffffffffffffffffff021916908373ffffffffffffffffffffffffffffffffffffffff1602179055506001600360008473ffffffffffffffffffffffffffffffffffffffff1673ffffffffffffffffffffffffffffffffffffffff16815260200190815260200160002060008282546106dd91906110fb565b92505081905550808273ffffffffffffffffffffffffffffffffffffffff16600073ffffffffffffffffffffffffffffffffffffffff167fddf252ad1be2c89b69c2b068fc378daa952ba7f163c4a11628f55a4df523b3ef60405160405180910390a45050565b6000806002600084815260200190815260200160002060009054906101000a900473ffffffffffffffffffffffffffffffffffffffff169050600073ffffffffffffffffffffffffffffffffffffffff168173ffffffffffffffffffffffffffffffffffffffff161415915050919050565b600081519050919050565b600082825260208201905092915050565b60005b838110156107f05780820151818401526020810190506107d5565b838111156107ff576000848401525b50505050565b6000601f19601f8301169050919050565b6000610821826107b6565b61082b81856107c1565b935061083b8185602086016107d2565b61084481610805565b840191505092915050565b600060208201905081810360008301526108698184610816565b905092915050565b6000604051905090565b600080fd5b600080fd5b6000819050919050565b61089881610885565b81146108a357600080fd5b50565b6000813590506108b58161088f565b92915050565b6000602082840312156108d1576108d061087b565b5b60006108df848285016108a6565b91505092915050565b600073ffffffffffffffffffffffffffffffffffffffff82169050919050565b6000610913826108e8565b9050919050565b61092381610908565b82525050565b600060208201905061093e600083018461091a565b92915050565b61094d81610908565b811461095857600080fd5b50565b60008135905061096a81610944565b92915050565b6000602082840312156109865761098561087b565b5b60006109948482850161095b565b91505092915050565b6109a681610885565b82525050565b60006020820190506109c1600083018461099d565b92915050565b600080fd5b600080fd5b7f4e487b7100000000000000000000000000000000000000000000000000000000600052604160045260246000fd5b610a0982610805565b810181811067ffffffffffffffff82111715610a2857610a276109d1565b5b80604052505050565b6000610a3b610871565b9050610a478282610a00565b919050565b600067ffffffffffffffff821115610a6757610a666109d1565b5b610a7082610805565b9050602081019050919050565b82818337600083830152505050565b6000610a9f610a9a84610a4c565b610a31565b905082815260208101848484011115610abb57610aba6109cc565b5b610ac6848285610a7d565b509392505050565b600082601f830112610ae357610ae26109c7565b5b8135610af3848260208601610a8c565b91505092915050565b600060208284031215610b1257610b1161087b565b5b600082013567ffffffffffffffff811115610b3057610b2f610880565b5b610b3c84828501610ace565b91505092915050565b7f4e487b7100000000000000000000000000000000000000000000000000000000600052602260045260246000fd5b60006002820490506001821680610b8c57607f821691505b602082108103610b9f57610b9e610b45565b5b50919050565b7f4f776e657220717565727920666f72206e6f6e2d6578697374616e7420746f6b60008201527f656e000000000000000000000000000000000000000000000000000000000000602082015250565b6000610c016022836107c1565b9150610c0c82610ba5565b604082019050919050565b60006020820190508181036000830152610c3081610bf4565b9050919050565b600081905092915050565b6000610c4d826107b6565b610c578185610c37565b9350610c678185602086016107d2565b80840191505092915050565b6000610c7f8284610c42565b915081905092915050565b7f4572726f723a204461726b5068616e746f6d20616c726561647920657869737460008201527f7300000000000000000000000000000000000000000000000000000000000000602082015250565b6000610ce66021836107c1565b9150610cf182610c8a565b604082019050919050565b60006020820190508181036000830152610d1581610cd9565b9050919050565b60008190508160005260206000209050919050565b60006020601f8301049050919050565b600082821b905092915050565b600060088302610d7e7fffffffffffffffffffffffffffffffffffffffffffffffffffffffffffffffff82610d41565b610d888683610d41565b95508019841693508086168417925050509392505050565b6000819050919050565b6000610dc5610dc0610dbb84610885565b610da0565b610885565b9050919050565b6000819050919050565b610ddf83610daa565b610df3610deb82610dcc565b848454610d4e565b825550505050565b600090565b610e08610dfb565b610e13818484610dd6565b505050565b5b81811015610e3757610e2c600082610e00565b600181019050610e19565b5050565b601f821115610e7c57610e4d81610d1c565b610e5684610d31565b81016020851015610e65578190505b610e79610e7185610d31565b830182610e18565b50505b505050565b600082821c905092915050565b6000610e9f60001984600802610e81565b1980831691505092915050565b6000610eb88383610e8e565b9150826002028217905092915050565b610ed1826107b6565b67ffffffffffffffff811115610eea57610ee96109d1565b5b610ef48254610b74565b610eff828285610e3b565b600060209050601f831160018114610f325760008415610f20578287015190505b610f2a8582610eac565b865550610f92565b601f198416610f4086610d1c565b60005b82811015610f6857848901518255600182019150602085019450602081019050610f43565b86831015610f855784890151610f81601f891682610e8e565b8355505b6001600288020188555050505b505050505050565b7f4e487b7100000000000000000000000000000000000000000000000000000000600052601160045260246000fd5b6000610fd482610885565b9150610fdf83610885565b925082821015610ff257610ff1610f9a565b5b828203905092915050565b7f4552433732313a204d696e74696e6720746f20746865207a65726f206164647260008201527f6573730000000000000000000000000000000000000000000000000000000000602082015250565b60006110596023836107c1565b915061106482610ffd565b604082019050919050565b600060208201905081810360008301526110888161104c565b9050919050565b7f4552433732313a20546f6b656e20616c7265616479206d696e74656400000000600082015250565b60006110c5601c836107c1565b91506110d08261108f565b602082019050919050565b600060208201905081810360008301526110f4816110b8565b9050919050565b600061110682610885565b915061111183610885565b9250827fffffffffffffffffffffffffffffffffffffffffffffffffffffffffffffffff0382111561114657611145610f9a565b5b82820190509291505056fea2646970667358221220c0ba649e581b223493e6762d26be69fb70f9378f368195c97833ab71753a560164736f6c634300080f0033",
  "immutableReferences": {},
  "source": "// SPDX-License-Identifier: MIT\r\n\r\npragma solidity ^0.8.0;\r\n\r\nimport './ERC721/ERC721Connector.sol';\r\n\r\n\r\ncontract DarkPhantom is ERC721Connector{\r\n\r\n    // Array to store our NFTs\r\n    string[] public darkPhantomz;\r\n    mapping(string => bool) darkPhantomExists;\r\n\r\n    // First Exercise - Initialize this contract to inherit\r\n    // Name and symbol from ERC721Metadat so that\r\n    // The name is DarkPhantom and the symbol is DPhantomz\r\n\r\n    constructor() ERC721Connector(\"DarkPhantom\", \"DPhantomz\") {}\r\n\r\n    function mint(string memory _darkPhantom) public {\r\n        \r\n        require(!darkPhantomExists[_darkPhantom], \"Error: DarkPhantom already exists\");\r\n\r\n        // This is deprecated - uint id = darkPhantomz.push(_darkPhantom);\r\n        // .push no longer returns the length but a reference to the added element\r\n        darkPhantomz.push(_darkPhantom);\r\n        uint id = darkPhantomz.length - 1;\r\n\r\n        _mint(msg.sender, id);\r\n        darkPhantomExists[_darkPhantom] = true;\r\n\r\n    }\r\n\r\n}",
  "sourcePath": "D:\\blockchain-learning\\nft-marketplace-react\\src\\contracts\\DarkPhantom.sol",
  "compiler": {
    "name": "solc",
    "version": "0.8.15+commit.e14f2714.Emscripten.clang"
  },
  "schemaVersion": "3.4.7",
  "updatedAt": "2022-06-23T14:31:26.835Z",
  "networkType": "ethereum",
  "devdoc": {
    "kind": "dev",
    "methods": {
      "balanceOf(address)": {
        "details": "NFTs assigned to the zero address are considered invalid, and this function throws for queries about the zero address.",
        "params": {
          "_owner": "An address for whom to query the balance"
        },
        "returns": {
          "_0": "The number of NFTs owned by `_owner`, possibly zero"
        }
      },
      "ownerOf(uint256)": {
        "details": "NFTs assigned to zero address are considered invalid, and queries about them do throw.",
        "params": {
          "_tokenId": "The identifier for an NFT"
        },
        "returns": {
          "_0": "The address of the owner of the NFT"
        }
      }
    },
    "version": 1
  },
  "userdoc": {
    "kind": "user",
    "methods": {
      "balanceOf(address)": {
        "notice": "Count all NFTs assigned to an owner"
      },
      "ownerOf(uint256)": {
        "notice": "Find the owner of an NFT"
      }
    },
    "version": 1
  }
}