{
  "contractName": "DarkPhantom",
  "abi": [
    {
      "inputs": [],
      "stateMutability": "nonpayable",
      "type": "constructor"
    },
    {
      "anonymous": false,
      "inputs": [
        {
          "indexed": true,
          "internalType": "address",
          "name": "_owner",
          "type": "address"
        },
        {
          "indexed": true,
          "internalType": "address",
          "name": "_approved",
          "type": "address"
        },
        {
          "indexed": true,
          "internalType": "uint256",
          "name": "_tokenId",
          "type": "uint256"
        }
      ],
      "name": "Approval",
      "type": "event"
    },
    {
      "anonymous": false,
      "inputs": [
        {
          "indexed": true,
          "internalType": "address",
          "name": "_from",
          "type": "address"
        },
        {
          "indexed": true,
          "internalType": "address",
          "name": "_to",
          "type": "address"
        },
        {
          "indexed": true,
          "internalType": "uint256",
          "name": "_tokenId",
          "type": "uint256"
        }
      ],
      "name": "Transfer",
      "type": "event"
    },
    {
      "inputs": [
        {
          "internalType": "address",
          "name": "_to",
          "type": "address"
        },
        {
          "internalType": "uint256",
          "name": "_tokenId",
          "type": "uint256"
        }
      ],
      "name": "approve",
      "outputs": [],
      "stateMutability": "nonpayable",
      "type": "function"
    },
    {
      "inputs": [
        {
          "internalType": "address",
          "name": "_owner",
          "type": "address"
        }
      ],
      "name": "balanceOf",
      "outputs": [
        {
          "internalType": "uint256",
          "name": "",
          "type": "uint256"
        }
      ],
      "stateMutability": "view",
      "type": "function",
      "constant": true
    },
    {
      "inputs": [
        {
          "internalType": "uint256",
          "name": "",
          "type": "uint256"
        }
      ],
      "name": "darkPhantomz",
      "outputs": [
        {
          "internalType": "string",
          "name": "",
          "type": "string"
        }
      ],
      "stateMutability": "view",
      "type": "function",
      "constant": true
    },
    {
      "inputs": [],
      "name": "name",
      "outputs": [
        {
          "internalType": "string",
          "name": "",
          "type": "string"
        }
      ],
      "stateMutability": "view",
      "type": "function",
      "constant": true
    },
    {
      "inputs": [
        {
          "internalType": "uint256",
          "name": "_tokenId",
          "type": "uint256"
        }
      ],
      "name": "ownerOf",
      "outputs": [
        {
          "internalType": "address",
          "name": "",
          "type": "address"
        }
      ],
      "stateMutability": "view",
      "type": "function",
      "constant": true
    },
    {
      "inputs": [
        {
          "internalType": "bytes4",
          "name": "interfaceID",
          "type": "bytes4"
        }
      ],
      "name": "supportsInterface",
      "outputs": [
        {
          "internalType": "bool",
          "name": "",
          "type": "bool"
        }
      ],
      "stateMutability": "view",
      "type": "function",
      "constant": true
    },
    {
      "inputs": [],
      "name": "symbol",
      "outputs": [
        {
          "internalType": "string",
          "name": "",
          "type": "string"
        }
      ],
      "stateMutability": "view",
      "type": "function",
      "constant": true
    },
    {
      "inputs": [
        {
          "internalType": "uint256",
          "name": "_index",
          "type": "uint256"
        }
      ],
      "name": "tokenByIndex",
      "outputs": [
        {
          "internalType": "uint256",
          "name": "",
          "type": "uint256"
        }
      ],
      "stateMutability": "view",
      "type": "function",
      "constant": true
    },
    {
      "inputs": [
        {
          "internalType": "address",
          "name": "_owner",
          "type": "address"
        },
        {
          "internalType": "uint256",
          "name": "_index",
          "type": "uint256"
        }
      ],
      "name": "tokenOfOwnerByIndex",
      "outputs": [
        {
          "internalType": "uint256",
          "name": "",
          "type": "uint256"
        }
      ],
      "stateMutability": "view",
      "type": "function",
      "constant": true
    },
    {
      "inputs": [],
      "name": "totalSupply",
      "outputs": [
        {
          "internalType": "uint256",
          "name": "",
          "type": "uint256"
        }
      ],
      "stateMutability": "view",
      "type": "function",
      "constant": true
    },
    {
      "inputs": [
        {
          "internalType": "address",
          "name": "_from",
          "type": "address"
        },
        {
          "internalType": "address",
          "name": "_to",
          "type": "address"
        },
        {
          "internalType": "uint256",
          "name": "_tokenId",
          "type": "uint256"
        }
      ],
      "name": "transferFrom",
      "outputs": [],
      "stateMutability": "nonpayable",
      "type": "function"
    },
    {
      "inputs": [
        {
          "internalType": "string",
          "name": "_darkPhantom",
          "type": "string"
        }
      ],
      "name": "mint",
      "outputs": [],
      "stateMutability": "nonpayable",
      "type": "function"
    }
  ],
  "bytecode": "0x60806040523480156200001157600080fd5b506040518060400160405280600b81526020017f4461726b5068616e746f6d0000000000000000000000000000000000000000008152506040518060400160405280600981526020017f445048414e544f4d5a00000000000000000000000000000000000000000000008152508181620000b17f01ffc9a7a5cef8baa21ed3c5c0d7e23accb804b619e9333b597f47a0d84076e26200023e60201b60201c565b8160019081620000c291906200058f565b508060029081620000d491906200058f565b50620001287f13b182f4c0e5b2efbac0efe6cf6d756c8b89f4b79c5707a043ed9ea740574ee97f7feaf19471f34a12a7eaf32d5f3090aa2260ea8624dc8a138e74e0bf0f623076186200023e60201b60201c565b5050620001c17f8c51fd5fcf1f456ec4eb0f32f68d83471264fe082fac12bcbfd2fa4be9eed6c77f22c82707ba960a14c7592ffb6b8cfaa073fed0048a84cc7fa41f6b5bd8e7f2e47f3a6eb71757dfc6e784c1459d26270140c2c147d95ca985c80026fc5301c3eca17f8a7e378434598edc36d108689a030cbc9d7d465de4f74c71bae1028eed6a881b1818186200023e60201b60201c565b620002367f8230223f691b981717299fae9549350a0d894555723531f02108b1f522c1a7977f6da5e1284143cdd2d15038a59bde3be031250f00291d64494c12d967b3a4e0c37fc53637662700e6c65104059db8bba34439e0c32483ab7c34e3ccae52c739549518186200023e60201b60201c565b50506200071f565b63ffffffff60e01b817bffffffffffffffffffffffffffffffffffffffffffffffffffffffff191603620002a9576040517f08c379a0000000000000000000000000000000000000000000000000000000008152600401620002a090620006fd565b60405180910390fd5b6001600080837bffffffffffffffffffffffffffffffffffffffffffffffffffffffff19167bffffffffffffffffffffffffffffffffffffffffffffffffffffffff1916815260200190815260200160002060006101000a81548160ff02191690831515021790555050565b600081519050919050565b7f4e487b7100000000000000000000000000000000000000000000000000000000600052604160045260246000fd5b7f4e487b7100000000000000000000000000000000000000000000000000000000600052602260045260246000fd5b600060028204905060018216806200039757607f821691505b602082108103620003ad57620003ac6200034f565b5b50919050565b60008190508160005260206000209050919050565b60006020601f8301049050919050565b600082821b905092915050565b600060088302620004177fffffffffffffffffffffffffffffffffffffffffffffffffffffffffffffffff82620003d8565b620004238683620003d8565b95508019841693508086168417925050509392505050565b6000819050919050565b6000819050919050565b6000620004706200046a62000464846200043b565b62000445565b6200043b565b9050919050565b6000819050919050565b6200048c836200044f565b620004a46200049b8262000477565b848454620003e5565b825550505050565b600090565b620004bb620004ac565b620004c881848462000481565b505050565b5b81811015620004f057620004e4600082620004b1565b600181019050620004ce565b5050565b601f8211156200053f576200050981620003b3565b6200051484620003c8565b8101602085101562000524578190505b6200053c6200053385620003c8565b830182620004cd565b50505b505050565b600082821c905092915050565b6000620005646000198460080262000544565b1980831691505092915050565b60006200057f838362000551565b9150826002028217905092915050565b6200059a8262000315565b67ffffffffffffffff811115620005b657620005b562000320565b5b620005c282546200037e565b620005cf828285620004f4565b600060209050601f831160018114620006075760008415620005f2578287015190505b620005fe858262000571565b8655506200066e565b601f1984166200061786620003b3565b60005b8281101562000641578489015182556001820191506020850194506020810190506200061a565b868310156200066157848901516200065d601f89168262000551565b8355505b6001600288020188555050505b505050505050565b600082825260208201905092915050565b7f4552433136353a20496e76616c696420696e746572666163652072657175657360008201527f7400000000000000000000000000000000000000000000000000000000000000602082015250565b6000620006e560218362000676565b9150620006f28262000687565b604082019050919050565b600060208201905081810360008301526200071881620006d6565b9050919050565b61219c806200072f6000396000f3fe608060405234801561001057600080fd5b50600436106100b45760003560e01c80632f745c59116100715780632f745c591461018d5780634f6ccce7146101bd5780636352211e146101ed57806370a082311461021d57806395d89b411461024d578063d85d3d271461026b576100b4565b806301ffc9a7146100b957806306fdde03146100e9578063095ea7b31461010757806318160ddd1461012357806323b872dd146101415780632b8596041461015d575b600080fd5b6100d360048036038101906100ce9190611256565b610287565b6040516100e0919061129e565b60405180910390f35b6100f16102ee565b6040516100fe9190611352565b60405180910390f35b610121600480360381019061011c9190611408565b610380565b005b61012b61051b565b6040516101389190611457565b60405180910390f35b61015b60048036038101906101569190611472565b610528565b005b610177600480360381019061017291906114c5565b61054b565b6040516101849190611352565b60405180910390f35b6101a760048036038101906101a29190611408565b6105f7565b6040516101b49190611457565b60405180910390f35b6101d760048036038101906101d291906114c5565b610717565b6040516101e49190611457565b60405180910390f35b610207600480360381019061020291906114c5565b610789565b6040516102149190611501565b60405180910390f35b6102376004803603810190610232919061151c565b61083a565b6040516102449190611457565b60405180910390f35b6102556108f8565b6040516102629190611352565b60405180910390f35b6102856004803603810190610280919061167e565b61098a565b005b6000806000837bffffffffffffffffffffffffffffffffffffffffffffffffffffffff19167bffffffffffffffffffffffffffffffffffffffffffffffffffffffff1916815260200190815260200160002060009054906101000a900460ff169050919050565b6060600180546102fd906116f6565b80601f0160208091040260200160405190810160405280929190818152602001828054610329906116f6565b80156103765780601f1061034b57610100808354040283529160200191610376565b820191906000526020600020905b81548152906001019060200180831161035957829003601f168201915b5050505050905090565b600061038b82610789565b90508073ffffffffffffffffffffffffffffffffffffffff168373ffffffffffffffffffffffffffffffffffffffff16036103fb576040517f08c379a00000000000000000000000000000000000000000000000000000000081526004016103f290611799565b60405180910390fd5b8073ffffffffffffffffffffffffffffffffffffffff163373ffffffffffffffffffffffffffffffffffffffff1614610469576040517f08c379a00000000000000000000000000000000000000000000000000000000081526004016104609061182b565b60405180910390fd5b826005600084815260200190815260200160002060006101000a81548173ffffffffffffffffffffffffffffffffffffffff021916908373ffffffffffffffffffffffffffffffffffffffff160217905550818373ffffffffffffffffffffffffffffffffffffffff168273ffffffffffffffffffffffffffffffffffffffff167f8c5be1e5ebec7d5bd14f71427d1e84f3dd0314c0f7b2291e5b200ac8c7c3b92560405160405180910390a4505050565b6000600680549050905090565b6105323382610a86565b61053b57600080fd5b610546838383610b7e565b505050565b600a818154811061055b57600080fd5b906000526020600020016000915090508054610576906116f6565b80601f01602080910402602001604051908101604052809291908181526020018280546105a2906116f6565b80156105ef5780601f106105c4576101008083540402835291602001916105ef565b820191906000526020600020905b8154815290600101906020018083116105d257829003601f168201915b505050505081565b60006106028361083a565b821115610644576040517f08c379a000000000000000000000000000000000000000000000000000000000815260040161063b90611897565b60405180910390fd5b600073ffffffffffffffffffffffffffffffffffffffff168373ffffffffffffffffffffffffffffffffffffffff16036106b3576040517f08c379a00000000000000000000000000000000000000000000000000000000081526004016106aa90611903565b60405180910390fd5b600860008473ffffffffffffffffffffffffffffffffffffffff1673ffffffffffffffffffffffffffffffffffffffff168152602001908152602001600020828154811061070457610703611923565b5b9060005260206000200154905092915050565b600061072161051b565b821115610763576040517f08c379a000000000000000000000000000000000000000000000000000000000815260040161075a9061199e565b60405180910390fd5b6006828154811061077757610776611923565b5b90600052602060002001549050919050565b6000806003600084815260200190815260200160002060009054906101000a900473ffffffffffffffffffffffffffffffffffffffff169050600073ffffffffffffffffffffffffffffffffffffffff168173ffffffffffffffffffffffffffffffffffffffff1603610831576040517f08c379a000000000000000000000000000000000000000000000000000000000815260040161082890611a30565b60405180910390fd5b80915050919050565b60008073ffffffffffffffffffffffffffffffffffffffff168273ffffffffffffffffffffffffffffffffffffffff16036108aa576040517f08c379a00000000000000000000000000000000000000000000000000000000081526004016108a190611a30565b60405180910390fd5b6108f1600460008473ffffffffffffffffffffffffffffffffffffffff1673ffffffffffffffffffffffffffffffffffffffff168152602001908152602001600020610deb565b9050919050565b606060028054610907906116f6565b80601f0160208091040260200160405190810160405280929190818152602001828054610933906116f6565b80156109805780601f1061095557610100808354040283529160200191610980565b820191906000526020600020905b81548152906001019060200180831161096357829003601f168201915b5050505050905090565b600b8160405161099a9190611a8c565b908152602001604051809103902060009054906101000a900460ff16156109f6576040517f08c379a00000000000000000000000000000000000000000000000000000000081526004016109ed90611b15565b60405180910390fd5b600a81908060018154018082558091505060019003906000526020600020016000909190919091509081610a2a9190611ce1565b5060006001600a80549050610a3f9190611de2565b9050610a4b3382610df9565b6001600b83604051610a5d9190611a8c565b908152602001604051809103902060006101000a81548160ff0219169083151502179055505050565b6000610a9182610e1a565b610ad0576040517f08c379a0000000000000000000000000000000000000000000000000000000008152600401610ac790611e62565b60405180910390fd5b6000610adb83610789565b90508073ffffffffffffffffffffffffffffffffffffffff168473ffffffffffffffffffffffffffffffffffffffff161480610b7557506005600084815260200190815260200160002060009054906101000a900473ffffffffffffffffffffffffffffffffffffffff1673ffffffffffffffffffffffffffffffffffffffff168473ffffffffffffffffffffffffffffffffffffffff16145b91505092915050565b600073ffffffffffffffffffffffffffffffffffffffff168273ffffffffffffffffffffffffffffffffffffffff1603610bed576040517f08c379a0000000000000000000000000000000000000000000000000000000008152600401610be490611ef4565b60405180910390fd5b610bf681610e1a565b610c35576040517f08c379a0000000000000000000000000000000000000000000000000000000008152600401610c2c90611e62565b60405180910390fd5b8273ffffffffffffffffffffffffffffffffffffffff16610c5582610789565b73ffffffffffffffffffffffffffffffffffffffff1614610cab576040517f08c379a0000000000000000000000000000000000000000000000000000000008152600401610ca290611f86565b60405180910390fd5b816003600083815260200190815260200160002060006101000a81548173ffffffffffffffffffffffffffffffffffffffff021916908373ffffffffffffffffffffffffffffffffffffffff160217905550610d44600460008573ffffffffffffffffffffffffffffffffffffffff1673ffffffffffffffffffffffffffffffffffffffff168152602001908152602001600020610e8c565b610d8b600460008473ffffffffffffffffffffffffffffffffffffffff1673ffffffffffffffffffffffffffffffffffffffff168152602001908152602001600020610eaf565b808273ffffffffffffffffffffffffffffffffffffffff168473ffffffffffffffffffffffffffffffffffffffff167fddf252ad1be2c89b69c2b068fc378daa952ba7f163c4a11628f55a4df523b3ef60405160405180910390a4505050565b600081600001549050919050565b610e038282610ece565b610e0c8161107f565b610e1682826110c8565b5050565b6000806003600084815260200190815260200160002060009054906101000a900473ffffffffffffffffffffffffffffffffffffffff169050600073ffffffffffffffffffffffffffffffffffffffff168173ffffffffffffffffffffffffffffffffffffffff161415915050919050565b610ea46001826000015461118c90919063ffffffff16565b816000018190555050565b6001816000016000828254610ec49190611fa6565b9250508190555050565b600073ffffffffffffffffffffffffffffffffffffffff168273ffffffffffffffffffffffffffffffffffffffff1603610f3d576040517f08c379a0000000000000000000000000000000000000000000000000000000008152600401610f349061206e565b60405180910390fd5b610f4681610e1a565b15610f86576040517f08c379a0000000000000000000000000000000000000000000000000000000008152600401610f7d906120da565b60405180910390fd5b816003600083815260200190815260200160002060006101000a81548173ffffffffffffffffffffffffffffffffffffffff021916908373ffffffffffffffffffffffffffffffffffffffff16021790555061101f600460008473ffffffffffffffffffffffffffffffffffffffff1673ffffffffffffffffffffffffffffffffffffffff168152602001908152602001600020610eaf565b808273ffffffffffffffffffffffffffffffffffffffff16600073ffffffffffffffffffffffffffffffffffffffff167fddf252ad1be2c89b69c2b068fc378daa952ba7f163c4a11628f55a4df523b3ef60405160405180910390a45050565b6006805490506007600083815260200190815260200160002081905550600681908060018154018082558091505060019003906000526020600020016000909190919091505550565b600860008373ffffffffffffffffffffffffffffffffffffffff1673ffffffffffffffffffffffffffffffffffffffff168152602001908152602001600020819080600181540180825580915050600190039060005260206000200160009091909190915055600860008373ffffffffffffffffffffffffffffffffffffffff1673ffffffffffffffffffffffffffffffffffffffff1681526020019081526020016000208054905060096000838152602001908152602001600020819055505050565b600080828461119b9190611de2565b9050838311156111e0576040517f08c379a00000000000000000000000000000000000000000000000000000000081526004016111d790612146565b60405180910390fd5b8091505092915050565b6000604051905090565b600080fd5b600080fd5b60007fffffffff0000000000000000000000000000000000000000000000000000000082169050919050565b611233816111fe565b811461123e57600080fd5b50565b6000813590506112508161122a565b92915050565b60006020828403121561126c5761126b6111f4565b5b600061127a84828501611241565b91505092915050565b60008115159050919050565b61129881611283565b82525050565b60006020820190506112b3600083018461128f565b92915050565b600081519050919050565b600082825260208201905092915050565b60005b838110156112f35780820151818401526020810190506112d8565b83811115611302576000848401525b50505050565b6000601f19601f8301169050919050565b6000611324826112b9565b61132e81856112c4565b935061133e8185602086016112d5565b61134781611308565b840191505092915050565b6000602082019050818103600083015261136c8184611319565b905092915050565b600073ffffffffffffffffffffffffffffffffffffffff82169050919050565b600061139f82611374565b9050919050565b6113af81611394565b81146113ba57600080fd5b50565b6000813590506113cc816113a6565b92915050565b6000819050919050565b6113e5816113d2565b81146113f057600080fd5b50565b600081359050611402816113dc565b92915050565b6000806040838503121561141f5761141e6111f4565b5b600061142d858286016113bd565b925050602061143e858286016113f3565b9150509250929050565b611451816113d2565b82525050565b600060208201905061146c6000830184611448565b92915050565b60008060006060848603121561148b5761148a6111f4565b5b6000611499868287016113bd565b93505060206114aa868287016113bd565b92505060406114bb868287016113f3565b9150509250925092565b6000602082840312156114db576114da6111f4565b5b60006114e9848285016113f3565b91505092915050565b6114fb81611394565b82525050565b600060208201905061151660008301846114f2565b92915050565b600060208284031215611532576115316111f4565b5b6000611540848285016113bd565b91505092915050565b600080fd5b600080fd5b7f4e487b7100000000000000000000000000000000000000000000000000000000600052604160045260246000fd5b61158b82611308565b810181811067ffffffffffffffff821117156115aa576115a9611553565b5b80604052505050565b60006115bd6111ea565b90506115c98282611582565b919050565b600067ffffffffffffffff8211156115e9576115e8611553565b5b6115f282611308565b9050602081019050919050565b82818337600083830152505050565b600061162161161c846115ce565b6115b3565b90508281526020810184848401111561163d5761163c61154e565b5b6116488482856115ff565b509392505050565b600082601f83011261166557611664611549565b5b813561167584826020860161160e565b91505092915050565b600060208284031215611694576116936111f4565b5b600082013567ffffffffffffffff8111156116b2576116b16111f9565b5b6116be84828501611650565b91505092915050565b7f4e487b7100000000000000000000000000000000000000000000000000000000600052602260045260246000fd5b6000600282049050600182168061170e57607f821691505b602082108103611721576117206116c7565b5b50919050565b7f4552433732313a20417070726f76616c20746f207468652063757272656e742060008201527f63616c6c65722100000000000000000000000000000000000000000000000000602082015250565b60006117836027836112c4565b915061178e82611727565b604082019050919050565b600060208201905081810360008301526117b281611776565b9050919050565b7f4552433732313a204f6e6c79206f776e6572206f662074686520746f6b656e2060008201527f63616e20617070726f7665210000000000000000000000000000000000000000602082015250565b6000611815602c836112c4565b9150611820826117b9565b604082019050919050565b6000602082019050818103600083015261184481611808565b9050919050565b7f4f776e657220696e646578206973206f7574206f6620626f756e647321000000600082015250565b6000611881601d836112c4565b915061188c8261184b565b602082019050919050565b600060208201905081810360008301526118b081611874565b9050919050565b7f4f776e657220697320696e76616c696421000000000000000000000000000000600082015250565b60006118ed6011836112c4565b91506118f8826118b7565b602082019050919050565b6000602082019050818103600083015261191c816118e0565b9050919050565b7f4e487b7100000000000000000000000000000000000000000000000000000000600052603260045260246000fd5b7f476c6f62616c20696e646578206973206f7574206f6620626f756e6473210000600082015250565b6000611988601e836112c4565b915061199382611952565b602082019050919050565b600060208201905081810360008301526119b78161197b565b9050919050565b7f4552433732313a204f776e657220717565727920666f72206e6f6e2d6578697360008201527f74616e7420746f6b656e00000000000000000000000000000000000000000000602082015250565b6000611a1a602a836112c4565b9150611a25826119be565b604082019050919050565b60006020820190508181036000830152611a4981611a0d565b9050919050565b600081905092915050565b6000611a66826112b9565b611a708185611a50565b9350611a808185602086016112d5565b80840191505092915050565b6000611a988284611a5b565b915081905092915050565b7f4572726f723a204461726b5068616e746f6d20616c726561647920657869737460008201527f7300000000000000000000000000000000000000000000000000000000000000602082015250565b6000611aff6021836112c4565b9150611b0a82611aa3565b604082019050919050565b60006020820190508181036000830152611b2e81611af2565b9050919050565b60008190508160005260206000209050919050565b60006020601f8301049050919050565b600082821b905092915050565b600060088302611b977fffffffffffffffffffffffffffffffffffffffffffffffffffffffffffffffff82611b5a565b611ba18683611b5a565b95508019841693508086168417925050509392505050565b6000819050919050565b6000611bde611bd9611bd4846113d2565b611bb9565b6113d2565b9050919050565b6000819050919050565b611bf883611bc3565b611c0c611c0482611be5565b848454611b67565b825550505050565b600090565b611c21611c14565b611c2c818484611bef565b505050565b5b81811015611c5057611c45600082611c19565b600181019050611c32565b5050565b601f821115611c9557611c6681611b35565b611c6f84611b4a565b81016020851015611c7e578190505b611c92611c8a85611b4a565b830182611c31565b50505b505050565b600082821c905092915050565b6000611cb860001984600802611c9a565b1980831691505092915050565b6000611cd18383611ca7565b9150826002028217905092915050565b611cea826112b9565b67ffffffffffffffff811115611d0357611d02611553565b5b611d0d82546116f6565b611d18828285611c54565b600060209050601f831160018114611d4b5760008415611d39578287015190505b611d438582611cc5565b865550611dab565b601f198416611d5986611b35565b60005b82811015611d8157848901518255600182019150602085019450602081019050611d5c565b86831015611d9e5784890151611d9a601f891682611ca7565b8355505b6001600288020188555050505b505050505050565b7f4e487b7100000000000000000000000000000000000000000000000000000000600052601160045260246000fd5b6000611ded826113d2565b9150611df8836113d2565b925082821015611e0b57611e0a611db3565b5b828203905092915050565b7f4552433732313a20546f6b656e20646f6573206e6f7420657869737400000000600082015250565b6000611e4c601c836112c4565b9150611e5782611e16565b602082019050919050565b60006020820190508181036000830152611e7b81611e3f565b9050919050565b7f4552433732313a205472616e7366657220746f20746865207a65726f2061646460008201527f7265737300000000000000000000000000000000000000000000000000000000602082015250565b6000611ede6024836112c4565b9150611ee982611e82565b604082019050919050565b60006020820190508181036000830152611f0d81611ed1565b9050919050565b7f4552433732313a204f6e6c7920746865206f776e6572206f662074686520746f60008201527f6b656e2063616e207472616e7366657200000000000000000000000000000000602082015250565b6000611f706030836112c4565b9150611f7b82611f14565b604082019050919050565b60006020820190508181036000830152611f9f81611f63565b9050919050565b6000611fb1826113d2565b9150611fbc836113d2565b9250827fffffffffffffffffffffffffffffffffffffffffffffffffffffffffffffffff03821115611ff157611ff0611db3565b5b828201905092915050565b7f4552433732313a204d696e74696e6720746f20746865207a65726f206164647260008201527f6573730000000000000000000000000000000000000000000000000000000000602082015250565b60006120586023836112c4565b915061206382611ffc565b604082019050919050565b600060208201905081810360008301526120878161204b565b9050919050565b7f4552433732313a20546f6b656e20616c7265616479206d696e74656400000000600082015250565b60006120c4601c836112c4565b91506120cf8261208e565b602082019050919050565b600060208201905081810360008301526120f3816120b7565b9050919050565b7f536166654d6174683a205375627472616374696f6e206f766572666c6f770000600082015250565b6000612130601e836112c4565b915061213b826120fa565b602082019050919050565b6000602082019050818103600083015261215f81612123565b905091905056fea26469706673582212203f06587c595948ddf3b9f843cd21ab6686299945c7d6ad21c4a1cef1671e61a564736f6c634300080f0033",
  "immutableReferences": {},
  "source": "// SPDX-License-Identifier: MIT\r\n\r\npragma solidity ^0.8.0;\r\n\r\nimport './ERC721/ERC721Connector.sol';\r\n\r\n\r\ncontract DarkPhantom is ERC721Connector {\r\n\r\n    // Array to store our NFTs\r\n    string[] public darkPhantomz;\r\n    mapping(string => bool) darkPhantomExists;\r\n\r\n    // First Exercise - Initialize this contract to inherit\r\n    // Name and symbol from ERC721Metadat so that\r\n    // The name is DarkPhantom and the symbol is DPhantomz\r\n\r\n    constructor() ERC721Connector(\"DarkPhantom\", \"DPHANTOMZ\") {}\r\n\r\n    function mint(string memory _darkPhantom) public {\r\n        \r\n        require(!darkPhantomExists[_darkPhantom], \"Error: DarkPhantom already exists\");\r\n\r\n        // This is deprecated - uint id = darkPhantomz.push(_darkPhantom);\r\n        // .push no longer returns the length but a reference to the added element\r\n        darkPhantomz.push(_darkPhantom);\r\n        uint id = darkPhantomz.length - 1;\r\n\r\n        _mint(msg.sender, id);\r\n        darkPhantomExists[_darkPhantom] = true;\r\n\r\n    }\r\n\r\n}",
  "sourcePath": "D:\\blockchain-learning\\nft-marketplace-react\\src\\contracts\\DarkPhantom.sol",
  "compiler": {
    "name": "solc",
    "version": "0.8.15+commit.e14f2714.Emscripten.clang"
  },
  "schemaVersion": "3.4.7",
  "updatedAt": "2022-07-05T16:27:32.721Z",
  "networkType": "ethereum",
  "devdoc": {
    "kind": "dev",
    "methods": {
      "approve(address,uint256)": {
        "details": "The zero address indicates there is no approved address. Throws unless `msg.sender` is the current NFT owner, or an authorized operator of the current owner.",
        "params": {
          "_to": "The new approved NFT controller",
          "_tokenId": "The NFT to approve"
        }
      },
      "balanceOf(address)": {
        "details": "NFTs assigned to the zero address are considered invalid, and this function throws for queries about the zero address.",
        "params": {
          "_owner": "An address for whom to query the balance"
        },
        "returns": {
          "_0": "The number of NFTs owned by `_owner`, possibly zero"
        }
      },
      "ownerOf(uint256)": {
        "details": "NFTs assigned to zero address are considered invalid, and queries about them do throw.",
        "params": {
          "_tokenId": "The identifier for an NFT"
        },
        "returns": {
          "_0": "The address of the owner of the NFT"
        }
      },
      "supportsInterface(bytes4)": {
        "details": "Interface identification is specified in ERC-165. This function  uses less than 30,000 gas.",
        "params": {
          "interfaceID": "The interface identifier, as specified in ERC-165"
        },
        "returns": {
          "_0": "`true` if the contract implements `interfaceID` and  `interfaceID` is not 0xffffffff, `false` otherwise"
        }
      },
      "tokenByIndex(uint256)": {
        "details": "Throws if _index >= totalSupply()",
        "params": {
          "_index": "The index of the token"
        },
        "returns": {
          "_0": "uint The token identifier for the NFT"
        }
      },
      "tokenOfOwnerByIndex(address,uint256)": {
        "details": "Throws if _index >= balanceOf(_owner) or if _owner is the zero address,  representing invalid NFTs.",
        "params": {
          "_index": "The index of the token",
          "_owner": "An address where we are interested in NFTs owned by them"
        },
        "returns": {
          "_0": "uint The token identifier for the indexed NFT assigned to owner"
        }
      },
      "totalSupply()": {
        "returns": {
          "_0": "uint A count of valid NFTs tracked by  this contract, where each one of them has an  assigned and queryable owner not equal to the  zero address"
        }
      },
      "transferFrom(address,address,uint256)": {
        "details": "Throws unless `msg.sender` is the current owner, an authorized  operator, or the approved address for this NFT. Throws if `_from` is  not the current owner. Throws if `_to` is the zero address. Throws if  `_tokenId` is not a valid NFT.",
        "params": {
          "_from": "The current owner of the NFT",
          "_to": "The new owner",
          "_tokenId": "The NFT to transfer"
        }
      }
    },
    "version": 1
  },
  "userdoc": {
    "kind": "user",
    "methods": {
      "approve(address,uint256)": {
        "notice": "Change or reaffirm the approved address for an NFT"
      },
      "balanceOf(address)": {
        "notice": "Count all NFTs assigned to an owner"
      },
      "name()": {
        "notice": "A descriptive name for a collection of NFTs in this contract"
      },
      "ownerOf(uint256)": {
        "notice": "Find the owner of an NFT"
      },
      "supportsInterface(bytes4)": {
        "notice": "Query if a contract implements an interface"
      },
      "symbol()": {
        "notice": "An abbreviated name for NFTs in this contract"
      },
      "tokenByIndex(uint256)": {
        "notice": "Enumerate valid NFTs"
      },
      "tokenOfOwnerByIndex(address,uint256)": {
        "notice": "Enumerate NFTs assigned to an owner"
      },
      "totalSupply()": {
        "notice": "Count NFTs tracked by this contract"
      },
      "transferFrom(address,address,uint256)": {
        "notice": "Transfer ownership of an NFT -- THE CALLER IS RESPONSIBLE  TO CONFIRM THAT `_to` IS CAPABLE OF RECEIVING NFTS OR ELSE  THEY MAY BE PERMANENTLY LOST"
      }
    },
    "version": 1
  }
}