{
  "contractName": "ERC721Enumerable",
  "abi": [
    {
      "anonymous": false,
      "inputs": [
        {
          "indexed": true,
          "internalType": "address",
          "name": "_from",
          "type": "address"
        },
        {
          "indexed": true,
          "internalType": "address",
          "name": "_to",
          "type": "address"
        },
        {
          "indexed": true,
          "internalType": "uint256",
          "name": "tokenId",
          "type": "uint256"
        }
      ],
      "name": "Transfer",
      "type": "event"
    },
    {
      "inputs": [
        {
          "internalType": "address",
          "name": "_owner",
          "type": "address"
        }
      ],
      "name": "balanceOf",
      "outputs": [
        {
          "internalType": "uint256",
          "name": "",
          "type": "uint256"
        }
      ],
      "stateMutability": "view",
      "type": "function"
    },
    {
      "inputs": [
        {
          "internalType": "uint256",
          "name": "_tokenId",
          "type": "uint256"
        }
      ],
      "name": "ownerOf",
      "outputs": [
        {
          "internalType": "address",
          "name": "",
          "type": "address"
        }
      ],
      "stateMutability": "view",
      "type": "function"
    },
    {
      "inputs": [],
      "name": "totalSupply",
      "outputs": [
        {
          "internalType": "uint256",
          "name": "",
          "type": "uint256"
        }
      ],
      "stateMutability": "view",
      "type": "function"
    },
    {
      "inputs": [
        {
          "internalType": "uint256",
          "name": "_index",
          "type": "uint256"
        }
      ],
      "name": "tokenByIndex",
      "outputs": [
        {
          "internalType": "uint256",
          "name": "",
          "type": "uint256"
        }
      ],
      "stateMutability": "view",
      "type": "function"
    },
    {
      "inputs": [
        {
          "internalType": "address",
          "name": "_owner",
          "type": "address"
        },
        {
          "internalType": "uint256",
          "name": "_index",
          "type": "uint256"
        }
      ],
      "name": "tokenOfOwnerByIndex",
      "outputs": [
        {
          "internalType": "uint256",
          "name": "",
          "type": "uint256"
        }
      ],
      "stateMutability": "view",
      "type": "function"
    }
  ],
  "bytecode": "0x608060405234801561001057600080fd5b50610813806100206000396000f3fe608060405234801561001057600080fd5b50600436106100575760003560e01c806318160ddd1461005c5780632f745c591461007a5780634f6ccce7146100aa5780636352211e146100da57806370a082311461010a575b600080fd5b61006461013a565b6040516100719190610459565b60405180910390f35b610094600480360381019061008f9190610503565b610147565b6040516100a19190610459565b60405180910390f35b6100c460048036038101906100bf9190610543565b610267565b6040516100d19190610459565b60405180910390f35b6100f460048036038101906100ef9190610543565b6102d9565b604051610101919061057f565b60405180910390f35b610124600480360381019061011f919061059a565b610389565b6040516101319190610459565b60405180910390f35b6000600280549050905090565b600061015283610389565b821115610194576040517f08c379a000000000000000000000000000000000000000000000000000000000815260040161018b90610624565b60405180910390fd5b600073ffffffffffffffffffffffffffffffffffffffff168373ffffffffffffffffffffffffffffffffffffffff1603610203576040517f08c379a00000000000000000000000000000000000000000000000000000000081526004016101fa90610690565b60405180910390fd5b600460008473ffffffffffffffffffffffffffffffffffffffff1673ffffffffffffffffffffffffffffffffffffffff1681526020019081526020016000208281548110610254576102536106b0565b5b9060005260206000200154905092915050565b600061027161013a565b8211156102b3576040517f08c379a00000000000000000000000000000000000000000000000000000000081526004016102aa9061072b565b60405180910390fd5b600282815481106102c7576102c66106b0565b5b90600052602060002001549050919050565b60008060008084815260200190815260200160002060009054906101000a900473ffffffffffffffffffffffffffffffffffffffff169050600073ffffffffffffffffffffffffffffffffffffffff168173ffffffffffffffffffffffffffffffffffffffff1603610380576040517f08c379a0000000000000000000000000000000000000000000000000000000008152600401610377906107bd565b60405180910390fd5b80915050919050565b60008073ffffffffffffffffffffffffffffffffffffffff168273ffffffffffffffffffffffffffffffffffffffff16036103f9576040517f08c379a00000000000000000000000000000000000000000000000000000000081526004016103f0906107bd565b60405180910390fd5b600160008373ffffffffffffffffffffffffffffffffffffffff1673ffffffffffffffffffffffffffffffffffffffff168152602001908152602001600020549050919050565b6000819050919050565b61045381610440565b82525050565b600060208201905061046e600083018461044a565b92915050565b600080fd5b600073ffffffffffffffffffffffffffffffffffffffff82169050919050565b60006104a482610479565b9050919050565b6104b481610499565b81146104bf57600080fd5b50565b6000813590506104d1816104ab565b92915050565b6104e081610440565b81146104eb57600080fd5b50565b6000813590506104fd816104d7565b92915050565b6000806040838503121561051a57610519610474565b5b6000610528858286016104c2565b9250506020610539858286016104ee565b9150509250929050565b60006020828403121561055957610558610474565b5b6000610567848285016104ee565b91505092915050565b61057981610499565b82525050565b60006020820190506105946000830184610570565b92915050565b6000602082840312156105b0576105af610474565b5b60006105be848285016104c2565b91505092915050565b600082825260208201905092915050565b7f4f776e657220696e646578206973206f7574206f6620626f756e647321000000600082015250565b600061060e601d836105c7565b9150610619826105d8565b602082019050919050565b6000602082019050818103600083015261063d81610601565b9050919050565b7f4f776e657220697320696e76616c696421000000000000000000000000000000600082015250565b600061067a6011836105c7565b915061068582610644565b602082019050919050565b600060208201905081810360008301526106a98161066d565b9050919050565b7f4e487b7100000000000000000000000000000000000000000000000000000000600052603260045260246000fd5b7f476c6f62616c20696e646578206973206f7574206f6620626f756e6473210000600082015250565b6000610715601e836105c7565b9150610720826106df565b602082019050919050565b6000602082019050818103600083015261074481610708565b9050919050565b7f4f776e657220717565727920666f72206e6f6e2d6578697374616e7420746f6b60008201527f656e000000000000000000000000000000000000000000000000000000000000602082015250565b60006107a76022836105c7565b91506107b28261074b565b604082019050919050565b600060208201905081810360008301526107d68161079a565b905091905056fea264697066735822122010f119bc1ee3da8531d3788a87fc4bac13925826334a76e1261a0b476786790c64736f6c634300080f0033",
  "immutableReferences": {},
  "source": "// SPDX-License-Identifier: MIT\r\n\r\npragma solidity ^0.8.0;\r\n\r\nimport './ERC721.sol';\r\n\r\n\r\ncontract ERC721Enumerable is ERC721 {\r\n\r\n    uint[] private allTokens;\r\n\r\n    // Mapping from tokenId to position in allTokens array\r\n    mapping(uint => uint) private allTokensIndex;\r\n\r\n    // Mapping of owner to list of all owner token ids\r\n    mapping(address => uint[]) private ownedTokens;\r\n\r\n    // Mapping from tokenId to index of the owner tokens list\r\n    mapping(uint => uint) private ownedTokensIndex;\r\n\r\n    /// @notice Count NFTs tracked by this contract\r\n    /// @return uint A count of valid NFTs tracked by \r\n    /// this contract, where each one of them has an \r\n    /// assigned and queryable owner not equal to the \r\n    /// zero address\r\n    function totalSupply() public view returns(uint) {\r\n        return allTokens.length;\r\n    }\r\n\r\n    /// @notice Mint the NFT\r\n    /// @param _to The address of the user to mint this NFT to\r\n    /// @param _tokenId The token identifier for an NFT\r\n    function _mint(address _to, uint _tokenId) internal override(ERC721) {\r\n        super._mint(_to, _tokenId);\r\n        addTokensToAllTokenEnumeration(_tokenId);\r\n        addTokensToOwnerEnumeration(_to, _tokenId);\r\n    }\r\n\r\n    /// @notice Adds new tokens to the ownedTokens and ownedTokensIndex to \r\n    /// keep track of an address's owned tokens.\r\n    /// @param _tokenId The token identifier for an NFT\r\n    /// @param _to The address of the user to track the tokens\r\n    function addTokensToOwnerEnumeration(address _to, uint _tokenId) private {\r\n        ownedTokens[_to].push(_tokenId);\r\n        ownedTokensIndex[_tokenId] = ownedTokens[_to].length;\r\n    }\r\n\r\n    /// @notice Adds new tokens to the allTokens and allTokensIndex \r\n    /// to keep track\r\n    /// @param _tokenId The token identifier for an NFT\r\n    function addTokensToAllTokenEnumeration(uint _tokenId) private {\r\n        allTokensIndex[_tokenId] = allTokens.length;\r\n        allTokens.push(_tokenId);\r\n    }\r\n\r\n    /// @notice Enumerate valid NFTs\r\n    /// @dev Throws if _index >= totalSupply()\r\n    /// @param _index The index of the token\r\n    /// @return uint The token identifier for the NFT\r\n    function tokenByIndex(uint _index) external view returns (uint) {\r\n        require(_index <= totalSupply(), \"Global index is out of bounds!\");\r\n        return allTokens[_index];\r\n    }\r\n\r\n    /// @notice Enumerate NFTs assigned to an owner\r\n    /// @dev Throws if _index >= balanceOf(_owner) or if _owner is the zero address, \r\n    /// representing invalid NFTs.\r\n    /// @param _owner An address where we are interested in NFTs owned by them\r\n    /// @param _index The index of the token\r\n    /// @return uint The token identifier for the indexed NFT assigned to owner\r\n    function tokenOfOwnerByIndex(address _owner, uint _index) external view returns (uint) {\r\n        require(_index <= balanceOf(_owner), \"Owner index is out of bounds!\");\r\n        require(_owner != address(0), \"Owner is invalid!\");\r\n        return ownedTokens[_owner][_index];\r\n    }\r\n\r\n}",
  "sourcePath": "D:\\blockchain-learning\\nft-marketplace-react\\src\\contracts\\ERC721\\ERC721Enumerable.sol",
  "compiler": {
    "name": "solc",
    "version": "0.8.15+commit.e14f2714.Emscripten.clang"
  },
  "schemaVersion": "3.4.7",
  "updatedAt": "2022-06-27T08:12:39.229Z",
  "devdoc": {
    "kind": "dev",
    "methods": {
      "balanceOf(address)": {
        "details": "NFTs assigned to the zero address are considered invalid, and this function throws for queries about the zero address.",
        "params": {
          "_owner": "An address for whom to query the balance"
        },
        "returns": {
          "_0": "The number of NFTs owned by `_owner`, possibly zero"
        }
      },
      "ownerOf(uint256)": {
        "details": "NFTs assigned to zero address are considered invalid, and queries about them do throw.",
        "params": {
          "_tokenId": "The identifier for an NFT"
        },
        "returns": {
          "_0": "The address of the owner of the NFT"
        }
      },
      "tokenByIndex(uint256)": {
        "details": "Throws if _index >= totalSupply()",
        "params": {
          "_index": "The index of the token"
        },
        "returns": {
          "_0": "uint The token identifier for the NFT"
        }
      },
      "tokenOfOwnerByIndex(address,uint256)": {
        "details": "Throws if _index >= balanceOf(_owner) or if _owner is the zero address,  representing invalid NFTs.",
        "params": {
          "_index": "The index of the token",
          "_owner": "An address where we are interested in NFTs owned by them"
        },
        "returns": {
          "_0": "uint The token identifier for the indexed NFT assigned to owner"
        }
      },
      "totalSupply()": {
        "returns": {
          "_0": "uint A count of valid NFTs tracked by  this contract, where each one of them has an  assigned and queryable owner not equal to the  zero address"
        }
      }
    },
    "version": 1
  },
  "userdoc": {
    "kind": "user",
    "methods": {
      "balanceOf(address)": {
        "notice": "Count all NFTs assigned to an owner"
      },
      "ownerOf(uint256)": {
        "notice": "Find the owner of an NFT"
      },
      "tokenByIndex(uint256)": {
        "notice": "Enumerate valid NFTs"
      },
      "tokenOfOwnerByIndex(address,uint256)": {
        "notice": "Enumerate NFTs assigned to an owner"
      },
      "totalSupply()": {
        "notice": "Count NFTs tracked by this contract"
      }
    },
    "version": 1
  }
}