{
  "contractName": "ERC721Enumerable",
  "abi": [
    {
      "inputs": [],
      "stateMutability": "nonpayable",
      "type": "constructor"
    },
    {
      "anonymous": false,
      "inputs": [
        {
          "indexed": true,
          "internalType": "address",
          "name": "_owner",
          "type": "address"
        },
        {
          "indexed": true,
          "internalType": "address",
          "name": "_approved",
          "type": "address"
        },
        {
          "indexed": true,
          "internalType": "uint256",
          "name": "_tokenId",
          "type": "uint256"
        }
      ],
      "name": "Approval",
      "type": "event"
    },
    {
      "anonymous": false,
      "inputs": [
        {
          "indexed": true,
          "internalType": "address",
          "name": "_from",
          "type": "address"
        },
        {
          "indexed": true,
          "internalType": "address",
          "name": "_to",
          "type": "address"
        },
        {
          "indexed": true,
          "internalType": "uint256",
          "name": "_tokenId",
          "type": "uint256"
        }
      ],
      "name": "Transfer",
      "type": "event"
    },
    {
      "inputs": [
        {
          "internalType": "address",
          "name": "_to",
          "type": "address"
        },
        {
          "internalType": "uint256",
          "name": "_tokenId",
          "type": "uint256"
        }
      ],
      "name": "approve",
      "outputs": [],
      "stateMutability": "nonpayable",
      "type": "function"
    },
    {
      "inputs": [
        {
          "internalType": "address",
          "name": "_owner",
          "type": "address"
        }
      ],
      "name": "balanceOf",
      "outputs": [
        {
          "internalType": "uint256",
          "name": "",
          "type": "uint256"
        }
      ],
      "stateMutability": "view",
      "type": "function"
    },
    {
      "inputs": [
        {
          "internalType": "uint256",
          "name": "_tokenId",
          "type": "uint256"
        }
      ],
      "name": "ownerOf",
      "outputs": [
        {
          "internalType": "address",
          "name": "",
          "type": "address"
        }
      ],
      "stateMutability": "view",
      "type": "function"
    },
    {
      "inputs": [
        {
          "internalType": "bytes4",
          "name": "interfaceID",
          "type": "bytes4"
        }
      ],
      "name": "supportsInterface",
      "outputs": [
        {
          "internalType": "bool",
          "name": "",
          "type": "bool"
        }
      ],
      "stateMutability": "view",
      "type": "function"
    },
    {
      "inputs": [
        {
          "internalType": "address",
          "name": "_from",
          "type": "address"
        },
        {
          "internalType": "address",
          "name": "_to",
          "type": "address"
        },
        {
          "internalType": "uint256",
          "name": "_tokenId",
          "type": "uint256"
        }
      ],
      "name": "transferFrom",
      "outputs": [],
      "stateMutability": "nonpayable",
      "type": "function"
    },
    {
      "inputs": [],
      "name": "totalSupply",
      "outputs": [
        {
          "internalType": "uint256",
          "name": "",
          "type": "uint256"
        }
      ],
      "stateMutability": "view",
      "type": "function"
    },
    {
      "inputs": [
        {
          "internalType": "uint256",
          "name": "_index",
          "type": "uint256"
        }
      ],
      "name": "tokenByIndex",
      "outputs": [
        {
          "internalType": "uint256",
          "name": "",
          "type": "uint256"
        }
      ],
      "stateMutability": "view",
      "type": "function"
    },
    {
      "inputs": [
        {
          "internalType": "address",
          "name": "_owner",
          "type": "address"
        },
        {
          "internalType": "uint256",
          "name": "_index",
          "type": "uint256"
        }
      ],
      "name": "tokenOfOwnerByIndex",
      "outputs": [
        {
          "internalType": "uint256",
          "name": "",
          "type": "uint256"
        }
      ],
      "stateMutability": "view",
      "type": "function"
    }
  ],
  "bytecode": "0x60806040523480156200001157600080fd5b50620000437f01ffc9a7a5cef8baa21ed3c5c0d7e23accb804b619e9333b597f47a0d84076e26200015560201b60201c565b620000da7f8c51fd5fcf1f456ec4eb0f32f68d83471264fe082fac12bcbfd2fa4be9eed6c77f22c82707ba960a14c7592ffb6b8cfaa073fed0048a84cc7fa41f6b5bd8e7f2e47f3a6eb71757dfc6e784c1459d26270140c2c147d95ca985c80026fc5301c3eca17f8a7e378434598edc36d108689a030cbc9d7d465de4f74c71bae1028eed6a881b1818186200015560201b60201c565b6200014f7f8230223f691b981717299fae9549350a0d894555723531f02108b1f522c1a7977f6da5e1284143cdd2d15038a59bde3be031250f00291d64494c12d967b3a4e0c37fc53637662700e6c65104059db8bba34439e0c32483ab7c34e3ccae52c739549518186200015560201b60201c565b620002d5565b63ffffffff60e01b817bffffffffffffffffffffffffffffffffffffffffffffffffffffffff191603620001c0576040517f08c379a0000000000000000000000000000000000000000000000000000000008152600401620001b790620002b3565b60405180910390fd5b6001600080837bffffffffffffffffffffffffffffffffffffffffffffffffffffffff19167bffffffffffffffffffffffffffffffffffffffffffffffffffffffff1916815260200190815260200160002060006101000a81548160ff02191690831515021790555050565b600082825260208201905092915050565b7f4552433136353a20496e76616c696420696e746572666163652072657175657360008201527f7400000000000000000000000000000000000000000000000000000000000000602082015250565b60006200029b6021836200022c565b9150620002a8826200023d565b604082019050919050565b60006020820190508181036000830152620002ce816200028c565b9050919050565b61134480620002e56000396000f3fe608060405234801561001057600080fd5b50600436106100885760003560e01c80632f745c591161005b5780632f745c59146101135780634f6ccce7146101435780636352211e1461017357806370a08231146101a357610088565b806301ffc9a71461008d578063095ea7b3146100bd57806318160ddd146100d957806323b872dd146100f7575b600080fd5b6100a760048036038101906100a29190610b53565b6101d3565b6040516100b49190610b9b565b60405180910390f35b6100d760048036038101906100d29190610c4a565b61023a565b005b6100e16103d5565b6040516100ee9190610c99565b60405180910390f35b610111600480360381019061010c9190610cb4565b6103e2565b005b61012d60048036038101906101289190610c4a565b610405565b60405161013a9190610c99565b60405180910390f35b61015d60048036038101906101589190610d07565b610525565b60405161016a9190610c99565b60405180910390f35b61018d60048036038101906101889190610d07565b610597565b60405161019a9190610d43565b60405180910390f35b6101bd60048036038101906101b89190610d5e565b610648565b6040516101ca9190610c99565b60405180910390f35b6000806000837bffffffffffffffffffffffffffffffffffffffffffffffffffffffff19167bffffffffffffffffffffffffffffffffffffffffffffffffffffffff1916815260200190815260200160002060009054906101000a900460ff169050919050565b600061024582610597565b90508073ffffffffffffffffffffffffffffffffffffffff168373ffffffffffffffffffffffffffffffffffffffff16036102b5576040517f08c379a00000000000000000000000000000000000000000000000000000000081526004016102ac90610e0e565b60405180910390fd5b8073ffffffffffffffffffffffffffffffffffffffff163373ffffffffffffffffffffffffffffffffffffffff1614610323576040517f08c379a000000000000000000000000000000000000000000000000000000000815260040161031a90610ea0565b60405180910390fd5b826003600084815260200190815260200160002060006101000a81548173ffffffffffffffffffffffffffffffffffffffff021916908373ffffffffffffffffffffffffffffffffffffffff160217905550818373ffffffffffffffffffffffffffffffffffffffff168273ffffffffffffffffffffffffffffffffffffffff167f8c5be1e5ebec7d5bd14f71427d1e84f3dd0314c0f7b2291e5b200ac8c7c3b92560405160405180910390a4505050565b6000600480549050905090565b6103ec33826106ff565b6103f557600080fd5b6104008383836107f7565b505050565b600061041083610648565b821115610452576040517f08c379a000000000000000000000000000000000000000000000000000000000815260040161044990610f0c565b60405180910390fd5b600073ffffffffffffffffffffffffffffffffffffffff168373ffffffffffffffffffffffffffffffffffffffff16036104c1576040517f08c379a00000000000000000000000000000000000000000000000000000000081526004016104b890610f78565b60405180910390fd5b600660008473ffffffffffffffffffffffffffffffffffffffff1673ffffffffffffffffffffffffffffffffffffffff168152602001908152602001600020828154811061051257610511610f98565b5b9060005260206000200154905092915050565b600061052f6103d5565b821115610571576040517f08c379a000000000000000000000000000000000000000000000000000000000815260040161056890611013565b60405180910390fd5b6004828154811061058557610584610f98565b5b90600052602060002001549050919050565b6000806001600084815260200190815260200160002060009054906101000a900473ffffffffffffffffffffffffffffffffffffffff169050600073ffffffffffffffffffffffffffffffffffffffff168173ffffffffffffffffffffffffffffffffffffffff160361063f576040517f08c379a0000000000000000000000000000000000000000000000000000000008152600401610636906110a5565b60405180910390fd5b80915050919050565b60008073ffffffffffffffffffffffffffffffffffffffff168273ffffffffffffffffffffffffffffffffffffffff16036106b8576040517f08c379a00000000000000000000000000000000000000000000000000000000081526004016106af906110a5565b60405180910390fd5b600260008373ffffffffffffffffffffffffffffffffffffffff1673ffffffffffffffffffffffffffffffffffffffff168152602001908152602001600020549050919050565b600061070a82610a84565b610749576040517f08c379a000000000000000000000000000000000000000000000000000000000815260040161074090611111565b60405180910390fd5b600061075483610597565b90508073ffffffffffffffffffffffffffffffffffffffff168473ffffffffffffffffffffffffffffffffffffffff1614806107ee57506003600084815260200190815260200160002060009054906101000a900473ffffffffffffffffffffffffffffffffffffffff1673ffffffffffffffffffffffffffffffffffffffff168473ffffffffffffffffffffffffffffffffffffffff16145b91505092915050565b600073ffffffffffffffffffffffffffffffffffffffff168273ffffffffffffffffffffffffffffffffffffffff1603610866576040517f08c379a000000000000000000000000000000000000000000000000000000000815260040161085d906111a3565b60405180910390fd5b61086f81610a84565b6108ae576040517f08c379a00000000000000000000000000000000000000000000000000000000081526004016108a590611111565b60405180910390fd5b8273ffffffffffffffffffffffffffffffffffffffff166108ce82610597565b73ffffffffffffffffffffffffffffffffffffffff1614610924576040517f08c379a000000000000000000000000000000000000000000000000000000000815260040161091b90611235565b60405180910390fd5b816001600083815260200190815260200160002060006101000a81548173ffffffffffffffffffffffffffffffffffffffff021916908373ffffffffffffffffffffffffffffffffffffffff1602179055506001600260008573ffffffffffffffffffffffffffffffffffffffff1673ffffffffffffffffffffffffffffffffffffffff16815260200190815260200160002060008282546109c69190611284565b925050819055506001600260008473ffffffffffffffffffffffffffffffffffffffff1673ffffffffffffffffffffffffffffffffffffffff1681526020019081526020016000206000828254610a1d91906112b8565b92505081905550808273ffffffffffffffffffffffffffffffffffffffff168473ffffffffffffffffffffffffffffffffffffffff167fddf252ad1be2c89b69c2b068fc378daa952ba7f163c4a11628f55a4df523b3ef60405160405180910390a4505050565b6000806001600084815260200190815260200160002060009054906101000a900473ffffffffffffffffffffffffffffffffffffffff169050600073ffffffffffffffffffffffffffffffffffffffff168173ffffffffffffffffffffffffffffffffffffffff161415915050919050565b600080fd5b60007fffffffff0000000000000000000000000000000000000000000000000000000082169050919050565b610b3081610afb565b8114610b3b57600080fd5b50565b600081359050610b4d81610b27565b92915050565b600060208284031215610b6957610b68610af6565b5b6000610b7784828501610b3e565b91505092915050565b60008115159050919050565b610b9581610b80565b82525050565b6000602082019050610bb06000830184610b8c565b92915050565b600073ffffffffffffffffffffffffffffffffffffffff82169050919050565b6000610be182610bb6565b9050919050565b610bf181610bd6565b8114610bfc57600080fd5b50565b600081359050610c0e81610be8565b92915050565b6000819050919050565b610c2781610c14565b8114610c3257600080fd5b50565b600081359050610c4481610c1e565b92915050565b60008060408385031215610c6157610c60610af6565b5b6000610c6f85828601610bff565b9250506020610c8085828601610c35565b9150509250929050565b610c9381610c14565b82525050565b6000602082019050610cae6000830184610c8a565b92915050565b600080600060608486031215610ccd57610ccc610af6565b5b6000610cdb86828701610bff565b9350506020610cec86828701610bff565b9250506040610cfd86828701610c35565b9150509250925092565b600060208284031215610d1d57610d1c610af6565b5b6000610d2b84828501610c35565b91505092915050565b610d3d81610bd6565b82525050565b6000602082019050610d586000830184610d34565b92915050565b600060208284031215610d7457610d73610af6565b5b6000610d8284828501610bff565b91505092915050565b600082825260208201905092915050565b7f4552433732313a20417070726f76616c20746f207468652063757272656e742060008201527f63616c6c65722100000000000000000000000000000000000000000000000000602082015250565b6000610df8602783610d8b565b9150610e0382610d9c565b604082019050919050565b60006020820190508181036000830152610e2781610deb565b9050919050565b7f4552433732313a204f6e6c79206f776e6572206f662074686520746f6b656e2060008201527f63616e20617070726f7665210000000000000000000000000000000000000000602082015250565b6000610e8a602c83610d8b565b9150610e9582610e2e565b604082019050919050565b60006020820190508181036000830152610eb981610e7d565b9050919050565b7f4f776e657220696e646578206973206f7574206f6620626f756e647321000000600082015250565b6000610ef6601d83610d8b565b9150610f0182610ec0565b602082019050919050565b60006020820190508181036000830152610f2581610ee9565b9050919050565b7f4f776e657220697320696e76616c696421000000000000000000000000000000600082015250565b6000610f62601183610d8b565b9150610f6d82610f2c565b602082019050919050565b60006020820190508181036000830152610f9181610f55565b9050919050565b7f4e487b7100000000000000000000000000000000000000000000000000000000600052603260045260246000fd5b7f476c6f62616c20696e646578206973206f7574206f6620626f756e6473210000600082015250565b6000610ffd601e83610d8b565b915061100882610fc7565b602082019050919050565b6000602082019050818103600083015261102c81610ff0565b9050919050565b7f4552433732313a204f776e657220717565727920666f72206e6f6e2d6578697360008201527f74616e7420746f6b656e00000000000000000000000000000000000000000000602082015250565b600061108f602a83610d8b565b915061109a82611033565b604082019050919050565b600060208201905081810360008301526110be81611082565b9050919050565b7f4552433732313a20546f6b656e20646f6573206e6f7420657869737400000000600082015250565b60006110fb601c83610d8b565b9150611106826110c5565b602082019050919050565b6000602082019050818103600083015261112a816110ee565b9050919050565b7f4552433732313a205472616e7366657220746f20746865207a65726f2061646460008201527f7265737300000000000000000000000000000000000000000000000000000000602082015250565b600061118d602483610d8b565b915061119882611131565b604082019050919050565b600060208201905081810360008301526111bc81611180565b9050919050565b7f4552433732313a204f6e6c7920746865206f776e6572206f662074686520746f60008201527f6b656e2063616e207472616e7366657200000000000000000000000000000000602082015250565b600061121f603083610d8b565b915061122a826111c3565b604082019050919050565b6000602082019050818103600083015261124e81611212565b9050919050565b7f4e487b7100000000000000000000000000000000000000000000000000000000600052601160045260246000fd5b600061128f82610c14565b915061129a83610c14565b9250828210156112ad576112ac611255565b5b828203905092915050565b60006112c382610c14565b91506112ce83610c14565b9250827fffffffffffffffffffffffffffffffffffffffffffffffffffffffffffffffff0382111561130357611302611255565b5b82820190509291505056fea2646970667358221220b6e0ac1e893fff169eaf358b99ec6e5a7c71fab8389e4dd0a2c11bdb636afb1d64736f6c634300080f0033",
  "immutableReferences": {},
  "source": "// SPDX-License-Identifier: MIT\r\n\r\npragma solidity ^0.8.0;\r\n\r\nimport './ERC721.sol';\r\nimport \"../interfaces/IERC721Enumerable.sol\";\r\n\r\n\r\ncontract ERC721Enumerable is IERC721Enumerable, ERC721 {\r\n\r\n    uint[] private allTokens;\r\n\r\n    // Mapping from tokenId to position in allTokens array\r\n    mapping(uint => uint) private allTokensIndex;\r\n\r\n    // Mapping of owner to list of all owner token ids\r\n    mapping(address => uint[]) private ownedTokens;\r\n\r\n    // Mapping from tokenId to index of the owner tokens list\r\n    mapping(uint => uint) private ownedTokensIndex;\r\n\r\n    constructor() {\r\n        _registerInterface(bytes4(\r\n            keccak256(\"totalSupply(bytes4)\") ^ \r\n            keccak256(\"tokenByIndex(bytes4)\") ^ \r\n            keccak256(\"tokenOfOwnerByIndex(bytes4)\")\r\n        ));\r\n    }\r\n\r\n    /// @notice Count NFTs tracked by this contract\r\n    /// @return uint A count of valid NFTs tracked by \r\n    /// this contract, where each one of them has an \r\n    /// assigned and queryable owner not equal to the \r\n    /// zero address\r\n    function totalSupply() public override view returns(uint) {\r\n        return allTokens.length;\r\n    }\r\n\r\n    /// @notice Mint the NFT\r\n    /// @param _to The address of the user to mint this NFT to\r\n    /// @param _tokenId The token identifier for an NFT\r\n    function _mint(address _to, uint _tokenId) internal override(ERC721) {\r\n        super._mint(_to, _tokenId);\r\n        addTokensToAllTokenEnumeration(_tokenId);\r\n        addTokensToOwnerEnumeration(_to, _tokenId);\r\n    }\r\n\r\n    /// @notice Adds new tokens to the ownedTokens and ownedTokensIndex to \r\n    /// keep track of an address's owned tokens.\r\n    /// @param _tokenId The token identifier for an NFT\r\n    /// @param _to The address of the user to track the tokens\r\n    function addTokensToOwnerEnumeration(address _to, uint _tokenId) private {\r\n        ownedTokens[_to].push(_tokenId);\r\n        ownedTokensIndex[_tokenId] = ownedTokens[_to].length;\r\n    }\r\n\r\n    /// @notice Adds new tokens to the allTokens and allTokensIndex \r\n    /// to keep track\r\n    /// @param _tokenId The token identifier for an NFT\r\n    function addTokensToAllTokenEnumeration(uint _tokenId) private {\r\n        allTokensIndex[_tokenId] = allTokens.length;\r\n        allTokens.push(_tokenId);\r\n    }\r\n\r\n    /// @notice Enumerate valid NFTs\r\n    /// @dev Throws if _index >= totalSupply()\r\n    /// @param _index The index of the token\r\n    /// @return uint The token identifier for the NFT\r\n    function tokenByIndex(uint _index) external override view returns (uint) {\r\n        require(_index <= totalSupply(), \"Global index is out of bounds!\");\r\n        return allTokens[_index];\r\n    }\r\n\r\n    /// @notice Enumerate NFTs assigned to an owner\r\n    /// @dev Throws if _index >= balanceOf(_owner) or if _owner is the zero address, \r\n    /// representing invalid NFTs.\r\n    /// @param _owner An address where we are interested in NFTs owned by them\r\n    /// @param _index The index of the token\r\n    /// @return uint The token identifier for the indexed NFT assigned to owner\r\n    function tokenOfOwnerByIndex(address _owner, uint _index) external override view returns (uint) {\r\n        require(_index <= balanceOf(_owner), \"Owner index is out of bounds!\");\r\n        require(_owner != address(0), \"Owner is invalid!\");\r\n        return ownedTokens[_owner][_index];\r\n    }\r\n\r\n}",
  "sourcePath": "D:\\blockchain-learning\\nft-marketplace-react\\src\\contracts\\ERC721\\ERC721Enumerable.sol",
  "compiler": {
    "name": "solc",
    "version": "0.8.15+commit.e14f2714.Emscripten.clang"
  },
  "schemaVersion": "3.4.7",
  "updatedAt": "2022-06-29T16:18:58.721Z",
  "devdoc": {
    "kind": "dev",
    "methods": {
      "approve(address,uint256)": {
        "details": "The zero address indicates there is no approved address. Throws unless `msg.sender` is the current NFT owner, or an authorized operator of the current owner.",
        "params": {
          "_to": "The new approved NFT controller",
          "_tokenId": "The NFT to approve"
        }
      },
      "balanceOf(address)": {
        "details": "NFTs assigned to the zero address are considered invalid, and this function throws for queries about the zero address.",
        "params": {
          "_owner": "An address for whom to query the balance"
        },
        "returns": {
          "_0": "The number of NFTs owned by `_owner`, possibly zero"
        }
      },
      "ownerOf(uint256)": {
        "details": "NFTs assigned to zero address are considered invalid, and queries about them do throw.",
        "params": {
          "_tokenId": "The identifier for an NFT"
        },
        "returns": {
          "_0": "The address of the owner of the NFT"
        }
      },
      "supportsInterface(bytes4)": {
        "details": "Interface identification is specified in ERC-165. This function  uses less than 30,000 gas.",
        "params": {
          "interfaceID": "The interface identifier, as specified in ERC-165"
        },
        "returns": {
          "_0": "`true` if the contract implements `interfaceID` and  `interfaceID` is not 0xffffffff, `false` otherwise"
        }
      },
      "tokenByIndex(uint256)": {
        "details": "Throws if _index >= totalSupply()",
        "params": {
          "_index": "The index of the token"
        },
        "returns": {
          "_0": "uint The token identifier for the NFT"
        }
      },
      "tokenOfOwnerByIndex(address,uint256)": {
        "details": "Throws if _index >= balanceOf(_owner) or if _owner is the zero address,  representing invalid NFTs.",
        "params": {
          "_index": "The index of the token",
          "_owner": "An address where we are interested in NFTs owned by them"
        },
        "returns": {
          "_0": "uint The token identifier for the indexed NFT assigned to owner"
        }
      },
      "totalSupply()": {
        "returns": {
          "_0": "uint A count of valid NFTs tracked by  this contract, where each one of them has an  assigned and queryable owner not equal to the  zero address"
        }
      },
      "transferFrom(address,address,uint256)": {
        "details": "Throws unless `msg.sender` is the current owner, an authorized  operator, or the approved address for this NFT. Throws if `_from` is  not the current owner. Throws if `_to` is the zero address. Throws if  `_tokenId` is not a valid NFT.",
        "params": {
          "_from": "The current owner of the NFT",
          "_to": "The new owner",
          "_tokenId": "The NFT to transfer"
        }
      }
    },
    "version": 1
  },
  "userdoc": {
    "kind": "user",
    "methods": {
      "approve(address,uint256)": {
        "notice": "Change or reaffirm the approved address for an NFT"
      },
      "balanceOf(address)": {
        "notice": "Count all NFTs assigned to an owner"
      },
      "ownerOf(uint256)": {
        "notice": "Find the owner of an NFT"
      },
      "supportsInterface(bytes4)": {
        "notice": "Query if a contract implements an interface"
      },
      "tokenByIndex(uint256)": {
        "notice": "Enumerate valid NFTs"
      },
      "tokenOfOwnerByIndex(address,uint256)": {
        "notice": "Enumerate NFTs assigned to an owner"
      },
      "totalSupply()": {
        "notice": "Count NFTs tracked by this contract"
      },
      "transferFrom(address,address,uint256)": {
        "notice": "Transfer ownership of an NFT -- THE CALLER IS RESPONSIBLE  TO CONFIRM THAT `_to` IS CAPABLE OF RECEIVING NFTS OR ELSE  THEY MAY BE PERMANENTLY LOST"
      }
    },
    "version": 1
  }
}