{
  "contractName": "ERC721Connector",
  "abi": [
    {
      "inputs": [
        {
          "internalType": "string",
          "name": "name",
          "type": "string"
        },
        {
          "internalType": "string",
          "name": "symbol",
          "type": "string"
        }
      ],
      "stateMutability": "nonpayable",
      "type": "constructor"
    },
    {
      "anonymous": false,
      "inputs": [
        {
          "indexed": true,
          "internalType": "address",
          "name": "_from",
          "type": "address"
        },
        {
          "indexed": true,
          "internalType": "address",
          "name": "_to",
          "type": "address"
        },
        {
          "indexed": true,
          "internalType": "uint256",
          "name": "tokenId",
          "type": "uint256"
        }
      ],
      "name": "Transfer",
      "type": "event"
    },
    {
      "inputs": [
        {
          "internalType": "address",
          "name": "_owner",
          "type": "address"
        }
      ],
      "name": "balanceOf",
      "outputs": [
        {
          "internalType": "uint256",
          "name": "",
          "type": "uint256"
        }
      ],
      "stateMutability": "view",
      "type": "function"
    },
    {
      "inputs": [],
      "name": "name",
      "outputs": [
        {
          "internalType": "string",
          "name": "",
          "type": "string"
        }
      ],
      "stateMutability": "view",
      "type": "function"
    },
    {
      "inputs": [
        {
          "internalType": "uint256",
          "name": "_tokenId",
          "type": "uint256"
        }
      ],
      "name": "ownerOf",
      "outputs": [
        {
          "internalType": "address",
          "name": "",
          "type": "address"
        }
      ],
      "stateMutability": "view",
      "type": "function"
    },
    {
      "inputs": [],
      "name": "symbol",
      "outputs": [
        {
          "internalType": "string",
          "name": "",
          "type": "string"
        }
      ],
      "stateMutability": "view",
      "type": "function"
    },
    {
      "inputs": [
        {
          "internalType": "uint256",
          "name": "_index",
          "type": "uint256"
        }
      ],
      "name": "tokenByIndex",
      "outputs": [
        {
          "internalType": "uint256",
          "name": "",
          "type": "uint256"
        }
      ],
      "stateMutability": "view",
      "type": "function"
    },
    {
      "inputs": [
        {
          "internalType": "address",
          "name": "_owner",
          "type": "address"
        },
        {
          "internalType": "uint256",
          "name": "_index",
          "type": "uint256"
        }
      ],
      "name": "tokenOfOwnerByIndex",
      "outputs": [
        {
          "internalType": "uint256",
          "name": "",
          "type": "uint256"
        }
      ],
      "stateMutability": "view",
      "type": "function"
    },
    {
      "inputs": [],
      "name": "totalSupply",
      "outputs": [
        {
          "internalType": "uint256",
          "name": "",
          "type": "uint256"
        }
      ],
      "stateMutability": "view",
      "type": "function"
    }
  ],
  "bytecode": "0x60806040523480156200001157600080fd5b506040516200106f3803806200106f833981810160405281019062000037919062000204565b818181600090816200004a9190620004d4565b5080600190816200005c9190620004d4565b5050505050620005bb565b6000604051905090565b600080fd5b600080fd5b600080fd5b600080fd5b6000601f19601f8301169050919050565b7f4e487b7100000000000000000000000000000000000000000000000000000000600052604160045260246000fd5b620000d08262000085565b810181811067ffffffffffffffff82111715620000f257620000f162000096565b5b80604052505050565b60006200010762000067565b9050620001158282620000c5565b919050565b600067ffffffffffffffff82111562000138576200013762000096565b5b620001438262000085565b9050602081019050919050565b60005b838110156200017057808201518184015260208101905062000153565b8381111562000180576000848401525b50505050565b60006200019d62000197846200011a565b620000fb565b905082815260208101848484011115620001bc57620001bb62000080565b5b620001c984828562000150565b509392505050565b600082601f830112620001e957620001e86200007b565b5b8151620001fb84826020860162000186565b91505092915050565b600080604083850312156200021e576200021d62000071565b5b600083015167ffffffffffffffff8111156200023f576200023e62000076565b5b6200024d85828601620001d1565b925050602083015167ffffffffffffffff81111562000271576200027062000076565b5b6200027f85828601620001d1565b9150509250929050565b600081519050919050565b7f4e487b7100000000000000000000000000000000000000000000000000000000600052602260045260246000fd5b60006002820490506001821680620002dc57607f821691505b602082108103620002f257620002f162000294565b5b50919050565b60008190508160005260206000209050919050565b60006020601f8301049050919050565b600082821b905092915050565b6000600883026200035c7fffffffffffffffffffffffffffffffffffffffffffffffffffffffffffffffff826200031d565b6200036886836200031d565b95508019841693508086168417925050509392505050565b6000819050919050565b6000819050919050565b6000620003b5620003af620003a98462000380565b6200038a565b62000380565b9050919050565b6000819050919050565b620003d18362000394565b620003e9620003e082620003bc565b8484546200032a565b825550505050565b600090565b62000400620003f1565b6200040d818484620003c6565b505050565b5b81811015620004355762000429600082620003f6565b60018101905062000413565b5050565b601f82111562000484576200044e81620002f8565b62000459846200030d565b8101602085101562000469578190505b6200048162000478856200030d565b83018262000412565b50505b505050565b600082821c905092915050565b6000620004a96000198460080262000489565b1980831691505092915050565b6000620004c4838362000496565b9150826002028217905092915050565b620004df8262000289565b67ffffffffffffffff811115620004fb57620004fa62000096565b5b620005078254620002c3565b6200051482828562000439565b600060209050601f8311600181146200054c576000841562000537578287015190505b620005438582620004b6565b865550620005b3565b601f1984166200055c86620002f8565b60005b8281101562000586578489015182556001820191506020850194506020810190506200055f565b86831015620005a65784890151620005a2601f89168262000496565b8355505b6001600288020188555050505b505050505050565b610aa480620005cb6000396000f3fe608060405234801561001057600080fd5b506004361061007d5760003560e01c80634f6ccce71161005b5780634f6ccce7146100ee5780636352211e1461011e57806370a082311461014e57806395d89b411461017e5761007d565b806306fdde031461008257806318160ddd146100a05780632f745c59146100be575b600080fd5b61008a61019c565b6040516100979190610660565b60405180910390f35b6100a861022e565b6040516100b5919061069b565b60405180910390f35b6100d860048036038101906100d39190610745565b61023b565b6040516100e5919061069b565b60405180910390f35b61010860048036038101906101039190610785565b61035b565b604051610115919061069b565b60405180910390f35b61013860048036038101906101339190610785565b6103cd565b60405161014591906107c1565b60405180910390f35b610168600480360381019061016391906107dc565b61047e565b604051610175919061069b565b60405180910390f35b610186610535565b6040516101939190610660565b60405180910390f35b6060600080546101ab90610838565b80601f01602080910402602001604051908101604052809291908181526020018280546101d790610838565b80156102245780601f106101f957610100808354040283529160200191610224565b820191906000526020600020905b81548152906001019060200180831161020757829003601f168201915b5050505050905090565b6000600480549050905090565b60006102468361047e565b821115610288576040517f08c379a000000000000000000000000000000000000000000000000000000000815260040161027f906108b5565b60405180910390fd5b600073ffffffffffffffffffffffffffffffffffffffff168373ffffffffffffffffffffffffffffffffffffffff16036102f7576040517f08c379a00000000000000000000000000000000000000000000000000000000081526004016102ee90610921565b60405180910390fd5b600660008473ffffffffffffffffffffffffffffffffffffffff1673ffffffffffffffffffffffffffffffffffffffff168152602001908152602001600020828154811061034857610347610941565b5b9060005260206000200154905092915050565b600061036561022e565b8211156103a7576040517f08c379a000000000000000000000000000000000000000000000000000000000815260040161039e906109bc565b60405180910390fd5b600482815481106103bb576103ba610941565b5b90600052602060002001549050919050565b6000806002600084815260200190815260200160002060009054906101000a900473ffffffffffffffffffffffffffffffffffffffff169050600073ffffffffffffffffffffffffffffffffffffffff168173ffffffffffffffffffffffffffffffffffffffff1603610475576040517f08c379a000000000000000000000000000000000000000000000000000000000815260040161046c90610a4e565b60405180910390fd5b80915050919050565b60008073ffffffffffffffffffffffffffffffffffffffff168273ffffffffffffffffffffffffffffffffffffffff16036104ee576040517f08c379a00000000000000000000000000000000000000000000000000000000081526004016104e590610a4e565b60405180910390fd5b600360008373ffffffffffffffffffffffffffffffffffffffff1673ffffffffffffffffffffffffffffffffffffffff168152602001908152602001600020549050919050565b60606001805461054490610838565b80601f016020809104026020016040519081016040528092919081815260200182805461057090610838565b80156105bd5780601f10610592576101008083540402835291602001916105bd565b820191906000526020600020905b8154815290600101906020018083116105a057829003601f168201915b5050505050905090565b600081519050919050565b600082825260208201905092915050565b60005b838110156106015780820151818401526020810190506105e6565b83811115610610576000848401525b50505050565b6000601f19601f8301169050919050565b6000610632826105c7565b61063c81856105d2565b935061064c8185602086016105e3565b61065581610616565b840191505092915050565b6000602082019050818103600083015261067a8184610627565b905092915050565b6000819050919050565b61069581610682565b82525050565b60006020820190506106b0600083018461068c565b92915050565b600080fd5b600073ffffffffffffffffffffffffffffffffffffffff82169050919050565b60006106e6826106bb565b9050919050565b6106f6816106db565b811461070157600080fd5b50565b600081359050610713816106ed565b92915050565b61072281610682565b811461072d57600080fd5b50565b60008135905061073f81610719565b92915050565b6000806040838503121561075c5761075b6106b6565b5b600061076a85828601610704565b925050602061077b85828601610730565b9150509250929050565b60006020828403121561079b5761079a6106b6565b5b60006107a984828501610730565b91505092915050565b6107bb816106db565b82525050565b60006020820190506107d660008301846107b2565b92915050565b6000602082840312156107f2576107f16106b6565b5b600061080084828501610704565b91505092915050565b7f4e487b7100000000000000000000000000000000000000000000000000000000600052602260045260246000fd5b6000600282049050600182168061085057607f821691505b60208210810361086357610862610809565b5b50919050565b7f4f776e657220696e646578206973206f7574206f6620626f756e647321000000600082015250565b600061089f601d836105d2565b91506108aa82610869565b602082019050919050565b600060208201905081810360008301526108ce81610892565b9050919050565b7f4f776e657220697320696e76616c696421000000000000000000000000000000600082015250565b600061090b6011836105d2565b9150610916826108d5565b602082019050919050565b6000602082019050818103600083015261093a816108fe565b9050919050565b7f4e487b7100000000000000000000000000000000000000000000000000000000600052603260045260246000fd5b7f476c6f62616c20696e646578206973206f7574206f6620626f756e6473210000600082015250565b60006109a6601e836105d2565b91506109b182610970565b602082019050919050565b600060208201905081810360008301526109d581610999565b9050919050565b7f4f776e657220717565727920666f72206e6f6e2d6578697374616e7420746f6b60008201527f656e000000000000000000000000000000000000000000000000000000000000602082015250565b6000610a386022836105d2565b9150610a43826109dc565b604082019050919050565b60006020820190508181036000830152610a6781610a2b565b905091905056fea26469706673582212209bf499a8e76541a1b2ee97c4fc7717c6ca57f23322d4af55080b1305ed83c2de64736f6c634300080f0033",
  "immutableReferences": {},
  "source": "// SPDX-License-Identifier: MIT\r\n\r\npragma solidity ^0.8.0;\r\n\r\nimport './ERC721Metadata.sol';\r\nimport './ERC721Enumerable.sol';\r\n\r\n\r\ncontract ERC721Connector is ERC71Metadata, ERC721Enumerable {\r\n\r\n    // We deploy connector right away\r\n    // We want to carry the metadata info over\r\n    constructor(string memory name, string memory symbol) ERC71Metadata(name, symbol) {}\r\n\r\n}",
  "sourcePath": "D:\\blockchain-learning\\nft-marketplace-react\\src\\contracts\\ERC721\\ERC721Connector.sol",
  "compiler": {
    "name": "solc",
    "version": "0.8.15+commit.e14f2714.Emscripten.clang"
  },
  "schemaVersion": "3.4.7",
  "updatedAt": "2022-06-27T08:12:39.224Z",
  "devdoc": {
    "kind": "dev",
    "methods": {
      "balanceOf(address)": {
        "details": "NFTs assigned to the zero address are considered invalid, and this function throws for queries about the zero address.",
        "params": {
          "_owner": "An address for whom to query the balance"
        },
        "returns": {
          "_0": "The number of NFTs owned by `_owner`, possibly zero"
        }
      },
      "ownerOf(uint256)": {
        "details": "NFTs assigned to zero address are considered invalid, and queries about them do throw.",
        "params": {
          "_tokenId": "The identifier for an NFT"
        },
        "returns": {
          "_0": "The address of the owner of the NFT"
        }
      },
      "tokenByIndex(uint256)": {
        "details": "Throws if _index >= totalSupply()",
        "params": {
          "_index": "The index of the token"
        },
        "returns": {
          "_0": "uint The token identifier for the NFT"
        }
      },
      "tokenOfOwnerByIndex(address,uint256)": {
        "details": "Throws if _index >= balanceOf(_owner) or if _owner is the zero address,  representing invalid NFTs.",
        "params": {
          "_index": "The index of the token",
          "_owner": "An address where we are interested in NFTs owned by them"
        },
        "returns": {
          "_0": "uint The token identifier for the indexed NFT assigned to owner"
        }
      },
      "totalSupply()": {
        "returns": {
          "_0": "uint A count of valid NFTs tracked by  this contract, where each one of them has an  assigned and queryable owner not equal to the  zero address"
        }
      }
    },
    "version": 1
  },
  "userdoc": {
    "kind": "user",
    "methods": {
      "balanceOf(address)": {
        "notice": "Count all NFTs assigned to an owner"
      },
      "ownerOf(uint256)": {
        "notice": "Find the owner of an NFT"
      },
      "tokenByIndex(uint256)": {
        "notice": "Enumerate valid NFTs"
      },
      "tokenOfOwnerByIndex(address,uint256)": {
        "notice": "Enumerate NFTs assigned to an owner"
      },
      "totalSupply()": {
        "notice": "Count NFTs tracked by this contract"
      }
    },
    "version": 1
  }
}